{
  "_format": "hh-sol-artifact-1",
  "contractName": "NFTBazzar",
  "sourceName": "contracts/NFTBazzar.sol",
  "abi": [
    {
      "inputs": [],
      "stateMutability": "nonpayable",
      "type": "constructor"
    },
    {
      "anonymous": false,
      "inputs": [
        {
          "indexed": true,
          "internalType": "address",
          "name": "owner",
          "type": "address"
        },
        {
          "indexed": true,
          "internalType": "address",
          "name": "approved",
          "type": "address"
        },
        {
          "indexed": true,
          "internalType": "uint256",
          "name": "tokenId",
          "type": "uint256"
        }
      ],
      "name": "Approval",
      "type": "event"
    },
    {
      "anonymous": false,
      "inputs": [
        {
          "indexed": true,
          "internalType": "address",
          "name": "owner",
          "type": "address"
        },
        {
          "indexed": true,
          "internalType": "address",
          "name": "operator",
          "type": "address"
        },
        {
          "indexed": false,
          "internalType": "bool",
          "name": "approved",
          "type": "bool"
        }
      ],
      "name": "ApprovalForAll",
      "type": "event"
    },
    {
      "anonymous": false,
      "inputs": [
        {
          "indexed": true,
          "internalType": "address",
          "name": "from",
          "type": "address"
        },
        {
          "indexed": true,
          "internalType": "address",
          "name": "to",
          "type": "address"
        },
        {
          "indexed": true,
          "internalType": "uint256",
          "name": "tokenId",
          "type": "uint256"
        }
      ],
      "name": "Transfer",
      "type": "event"
    },
    {
      "anonymous": false,
      "inputs": [
        {
          "indexed": true,
          "internalType": "uint256",
          "name": "tokenId",
          "type": "uint256"
        },
        {
          "indexed": false,
          "internalType": "address",
          "name": "seller",
          "type": "address"
        },
        {
          "indexed": false,
          "internalType": "address",
          "name": "owner",
          "type": "address"
        },
        {
          "indexed": false,
          "internalType": "uint256",
          "name": "price",
          "type": "uint256"
        },
        {
          "indexed": false,
          "internalType": "bool",
          "name": "sold",
          "type": "bool"
        }
      ],
      "name": "idMarketItemCreated",
      "type": "event"
    },
    {
      "inputs": [
        {
          "internalType": "address",
          "name": "to",
          "type": "address"
        },
        {
          "internalType": "uint256",
          "name": "tokenId",
          "type": "uint256"
        }
      ],
      "name": "approve",
      "outputs": [],
      "stateMutability": "nonpayable",
      "type": "function"
    },
    {
      "inputs": [
        {
          "internalType": "address",
          "name": "owner",
          "type": "address"
        }
      ],
      "name": "balanceOf",
      "outputs": [
        {
          "internalType": "uint256",
          "name": "",
          "type": "uint256"
        }
      ],
      "stateMutability": "view",
      "type": "function"
    },
    {
      "inputs": [
        {
          "internalType": "uint256",
          "name": "tokenId",
          "type": "uint256"
        }
      ],
      "name": "createMarketSale",
      "outputs": [],
      "stateMutability": "payable",
      "type": "function"
    },
    {
      "inputs": [
        {
          "internalType": "string",
          "name": "tokenURI",
          "type": "string"
        },
        {
          "internalType": "uint256",
          "name": "price",
          "type": "uint256"
        }
      ],
      "name": "createToken",
      "outputs": [
        {
          "internalType": "uint256",
          "name": "",
          "type": "uint256"
        }
      ],
      "stateMutability": "payable",
      "type": "function"
    },
    {
      "inputs": [],
      "name": "fetchItemsListed",
      "outputs": [
        {
          "components": [
            {
              "internalType": "uint256",
              "name": "_tokenId",
              "type": "uint256"
            },
            {
              "internalType": "address payable",
              "name": "seller",
              "type": "address"
            },
            {
              "internalType": "address payable",
              "name": "owner",
              "type": "address"
            },
            {
              "internalType": "uint256",
              "name": "price",
              "type": "uint256"
            },
            {
              "internalType": "bool",
              "name": "sold",
              "type": "bool"
            }
          ],
          "internalType": "struct NFTBazzar.MarketItem[]",
          "name": "",
          "type": "tuple[]"
        }
      ],
      "stateMutability": "view",
      "type": "function"
    },
    {
      "inputs": [],
      "name": "fetchMarketItem",
      "outputs": [
        {
          "components": [
            {
              "internalType": "uint256",
              "name": "_tokenId",
              "type": "uint256"
            },
            {
              "internalType": "address payable",
              "name": "seller",
              "type": "address"
            },
            {
              "internalType": "address payable",
              "name": "owner",
              "type": "address"
            },
            {
              "internalType": "uint256",
              "name": "price",
              "type": "uint256"
            },
            {
              "internalType": "bool",
              "name": "sold",
              "type": "bool"
            }
          ],
          "internalType": "struct NFTBazzar.MarketItem[]",
          "name": "",
          "type": "tuple[]"
        }
      ],
      "stateMutability": "view",
      "type": "function"
    },
    {
      "inputs": [],
      "name": "fetchMyNFT",
      "outputs": [
        {
          "components": [
            {
              "internalType": "uint256",
              "name": "_tokenId",
              "type": "uint256"
            },
            {
              "internalType": "address payable",
              "name": "seller",
              "type": "address"
            },
            {
              "internalType": "address payable",
              "name": "owner",
              "type": "address"
            },
            {
              "internalType": "uint256",
              "name": "price",
              "type": "uint256"
            },
            {
              "internalType": "bool",
              "name": "sold",
              "type": "bool"
            }
          ],
          "internalType": "struct NFTBazzar.MarketItem[]",
          "name": "",
          "type": "tuple[]"
        }
      ],
      "stateMutability": "view",
      "type": "function"
    },
    {
      "inputs": [
        {
          "internalType": "uint256",
          "name": "tokenId",
          "type": "uint256"
        }
      ],
      "name": "getApproved",
      "outputs": [
        {
          "internalType": "address",
          "name": "",
          "type": "address"
        }
      ],
      "stateMutability": "view",
      "type": "function"
    },
    {
      "inputs": [],
      "name": "getListingPrice",
      "outputs": [
        {
          "internalType": "uint256",
          "name": "",
          "type": "uint256"
        }
      ],
      "stateMutability": "view",
      "type": "function"
    },
    {
      "inputs": [
        {
          "internalType": "address",
          "name": "owner",
          "type": "address"
        },
        {
          "internalType": "address",
          "name": "operator",
          "type": "address"
        }
      ],
      "name": "isApprovedForAll",
      "outputs": [
        {
          "internalType": "bool",
          "name": "",
          "type": "bool"
        }
      ],
      "stateMutability": "view",
      "type": "function"
    },
    {
      "inputs": [],
      "name": "name",
      "outputs": [
        {
          "internalType": "string",
          "name": "",
          "type": "string"
        }
      ],
      "stateMutability": "view",
      "type": "function"
    },
    {
      "inputs": [
        {
          "internalType": "uint256",
          "name": "tokenId",
          "type": "uint256"
        }
      ],
      "name": "ownerOf",
      "outputs": [
        {
          "internalType": "address",
          "name": "",
          "type": "address"
        }
      ],
      "stateMutability": "view",
      "type": "function"
    },
    {
      "inputs": [
        {
          "internalType": "uint256",
          "name": "tokenId",
          "type": "uint256"
        },
        {
          "internalType": "uint256",
          "name": "price",
          "type": "uint256"
        }
      ],
      "name": "reSellToken",
      "outputs": [],
      "stateMutability": "payable",
      "type": "function"
    },
    {
      "inputs": [
        {
          "internalType": "address",
          "name": "from",
          "type": "address"
        },
        {
          "internalType": "address",
          "name": "to",
          "type": "address"
        },
        {
          "internalType": "uint256",
          "name": "tokenId",
          "type": "uint256"
        }
      ],
      "name": "safeTransferFrom",
      "outputs": [],
      "stateMutability": "nonpayable",
      "type": "function"
    },
    {
      "inputs": [
        {
          "internalType": "address",
          "name": "from",
          "type": "address"
        },
        {
          "internalType": "address",
          "name": "to",
          "type": "address"
        },
        {
          "internalType": "uint256",
          "name": "tokenId",
          "type": "uint256"
        },
        {
          "internalType": "bytes",
          "name": "data",
          "type": "bytes"
        }
      ],
      "name": "safeTransferFrom",
      "outputs": [],
      "stateMutability": "nonpayable",
      "type": "function"
    },
    {
      "inputs": [
        {
          "internalType": "address",
          "name": "operator",
          "type": "address"
        },
        {
          "internalType": "bool",
          "name": "approved",
          "type": "bool"
        }
      ],
      "name": "setApprovalForAll",
      "outputs": [],
      "stateMutability": "nonpayable",
      "type": "function"
    },
    {
      "inputs": [
        {
          "internalType": "bytes4",
          "name": "interfaceId",
          "type": "bytes4"
        }
      ],
      "name": "supportsInterface",
      "outputs": [
        {
          "internalType": "bool",
          "name": "",
          "type": "bool"
        }
      ],
      "stateMutability": "view",
      "type": "function"
    },
    {
      "inputs": [],
      "name": "symbol",
      "outputs": [
        {
          "internalType": "string",
          "name": "",
          "type": "string"
        }
      ],
      "stateMutability": "view",
      "type": "function"
    },
    {
      "inputs": [
        {
          "internalType": "uint256",
          "name": "tokenId",
          "type": "uint256"
        }
      ],
      "name": "tokenURI",
      "outputs": [
        {
          "internalType": "string",
          "name": "",
          "type": "string"
        }
      ],
      "stateMutability": "view",
      "type": "function"
    },
    {
      "inputs": [
        {
          "internalType": "address",
          "name": "from",
          "type": "address"
        },
        {
          "internalType": "address",
          "name": "to",
          "type": "address"
        },
        {
          "internalType": "uint256",
          "name": "tokenId",
          "type": "uint256"
        }
      ],
      "name": "transferFrom",
      "outputs": [],
      "stateMutability": "nonpayable",
      "type": "function"
    },
    {
      "inputs": [
        {
          "internalType": "uint256",
          "name": "_listingPrice",
          "type": "uint256"
        }
      ],
      "name": "updateListingPrice",
      "outputs": [],
      "stateMutability": "payable",
      "type": "function"
    }
  ],
  "bytecode": "0x60806040526608e1bc9bf040006009553480156200001c57600080fd5b506040518060400160405280600981526020017f4e465442617a7a617200000000000000000000000000000000000000000000008152506040518060400160405280600581526020017f4d594e465400000000000000000000000000000000000000000000000000000081525081600090816200009a919062000370565b508060019081620000ac919062000370565b50505033600a60006101000a81548173ffffffffffffffffffffffffffffffffffffffff021916908373ffffffffffffffffffffffffffffffffffffffff16021790555062000457565b600081519050919050565b7f4e487b7100000000000000000000000000000000000000000000000000000000600052604160045260246000fd5b7f4e487b7100000000000000000000000000000000000000000000000000000000600052602260045260246000fd5b600060028204905060018216806200017857607f821691505b6020821081036200018e576200018d62000130565b5b50919050565b60008190508160005260206000209050919050565b60006020601f8301049050919050565b600082821b905092915050565b600060088302620001f87fffffffffffffffffffffffffffffffffffffffffffffffffffffffffffffffff82620001b9565b620002048683620001b9565b95508019841693508086168417925050509392505050565b6000819050919050565b6000819050919050565b6000620002516200024b62000245846200021c565b62000226565b6200021c565b9050919050565b6000819050919050565b6200026d8362000230565b620002856200027c8262000258565b848454620001c6565b825550505050565b600090565b6200029c6200028d565b620002a981848462000262565b505050565b5b81811015620002d157620002c560008262000292565b600181019050620002af565b5050565b601f8211156200032057620002ea8162000194565b620002f584620001a9565b8101602085101562000305578190505b6200031d6200031485620001a9565b830182620002ae565b50505b505050565b600082821c905092915050565b6000620003456000198460080262000325565b1980831691505092915050565b600062000360838362000332565b9150826002028217905092915050565b6200037b82620000f6565b67ffffffffffffffff81111562000397576200039662000101565b5b620003a382546200015f565b620003b0828285620002d5565b600060209050601f831160018114620003e85760008415620003d3578287015190505b620003df858262000352565b8655506200044f565b601f198416620003f88662000194565b60005b828110156200042257848901518255600182019150602085019450602081019050620003fb565b868310156200044257848901516200043e601f89168262000332565b8355505b6001600288020188555050505b505050505050565b61410d80620004676000396000f3fe60806040526004361061012a5760003560e01c806372b3b620116100ab578063ae677aa31161006f578063ae677aa3146103ea578063b88d4fde14610406578063be9af5361461042f578063c18763f71461044b578063c87b56dd14610476578063e985e9c5146104b35761012a565b806372b3b6201461031f57806385535b251461034f5780638fafd0211461036b57806395d89b4114610396578063a22cb465146103c15761012a565b806323b872dd116100f257806323b872dd1461022857806342842e0e1461025157806345f8fa801461027a5780636352211e146102a557806370a08231146102e25761012a565b806301ffc9a71461012f57806306fdde031461016c578063081812fc14610197578063095ea7b3146101d457806312e85585146101fd575b600080fd5b34801561013b57600080fd5b5061015660048036038101906101519190612903565b6104f0565b604051610163919061294b565b60405180910390f35b34801561017857600080fd5b506101816105d2565b60405161018e91906129f6565b60405180910390f35b3480156101a357600080fd5b506101be60048036038101906101b99190612a4e565b610664565b6040516101cb9190612abc565b60405180910390f35b3480156101e057600080fd5b506101fb60048036038101906101f69190612b03565b6106aa565b005b34801561020957600080fd5b506102126107c1565b60405161021f9190612b52565b60405180910390f35b34801561023457600080fd5b5061024f600480360381019061024a9190612b6d565b6107cb565b005b34801561025d57600080fd5b5061027860048036038101906102739190612b6d565b61082b565b005b34801561028657600080fd5b5061028f61084b565b60405161029c9190612d16565b60405180910390f35b3480156102b157600080fd5b506102cc60048036038101906102c79190612a4e565b610b2b565b6040516102d99190612abc565b60405180910390f35b3480156102ee57600080fd5b5061030960048036038101906103049190612d38565b610bdc565b6040516103169190612b52565b60405180910390f35b61033960048036038101906103349190612e9a565b610c93565b6040516103469190612b52565b60405180910390f35b61036960048036038101906103649190612ef6565b610cd5565b005b34801561037757600080fd5b50610380610ecb565b60405161038d9190612d16565b60405180910390f35b3480156103a257600080fd5b506103ab61112d565b6040516103b891906129f6565b60405180910390f35b3480156103cd57600080fd5b506103e860048036038101906103e39190612f62565b6111bf565b005b61040460048036038101906103ff9190612a4e565b6111d5565b005b34801561041257600080fd5b5061042d60048036038101906104289190613043565b61126f565b005b61044960048036038101906104449190612a4e565b6112d1565b005b34801561045757600080fd5b506104606114b3565b60405161046d9190612d16565b60405180910390f35b34801561048257600080fd5b5061049d60048036038101906104989190612a4e565b611793565b6040516104aa91906129f6565b60405180910390f35b3480156104bf57600080fd5b506104da60048036038101906104d591906130c6565b6118a5565b6040516104e7919061294b565b60405180910390f35b60007f80ac58cd000000000000000000000000000000000000000000000000000000007bffffffffffffffffffffffffffffffffffffffffffffffffffffffff1916827bffffffffffffffffffffffffffffffffffffffffffffffffffffffff191614806105bb57507f5b5e139f000000000000000000000000000000000000000000000000000000007bffffffffffffffffffffffffffffffffffffffffffffffffffffffff1916827bffffffffffffffffffffffffffffffffffffffffffffffffffffffff1916145b806105cb57506105ca82611939565b5b9050919050565b6060600080546105e190613135565b80601f016020809104026020016040519081016040528092919081815260200182805461060d90613135565b801561065a5780601f1061062f5761010080835404028352916020019161065a565b820191906000526020600020905b81548152906001019060200180831161063d57829003601f168201915b5050505050905090565b600061066f826119a3565b6004600083815260200190815260200160002060009054906101000a900473ffffffffffffffffffffffffffffffffffffffff169050919050565b60006106b582610b2b565b90508073ffffffffffffffffffffffffffffffffffffffff168373ffffffffffffffffffffffffffffffffffffffff1603610725576040517f08c379a000000000000000000000000000000000000000000000000000000000815260040161071c906131d8565b60405180910390fd5b8073ffffffffffffffffffffffffffffffffffffffff166107446119ee565b73ffffffffffffffffffffffffffffffffffffffff16148061077357506107728161076d6119ee565b6118a5565b5b6107b2576040517f08c379a00000000000000000000000000000000000000000000000000000000081526004016107a99061326a565b60405180910390fd5b6107bc83836119f6565b505050565b6000600954905090565b6107dc6107d66119ee565b82611aaf565b61081b576040517f08c379a0000000000000000000000000000000000000000000000000000000008152600401610812906132fc565b60405180910390fd5b610826838383611b44565b505050565b6108468383836040518060200160405280600081525061126f565b505050565b606060006108596007611daa565b905060008060005b838110156108fb573373ffffffffffffffffffffffffffffffffffffffff16600b6000600184610891919061334b565b815260200190815260200160002060010160009054906101000a900473ffffffffffffffffffffffffffffffffffffffff1673ffffffffffffffffffffffffffffffffffffffff16036108ee576001836108eb919061334b565b92505b8080600101915050610861565b5060008267ffffffffffffffff81111561091857610917612d6f565b5b60405190808252806020026020018201604052801561095157816020015b61093e61283a565b8152602001906001900390816109365790505b50905060005b84811015610b20573373ffffffffffffffffffffffffffffffffffffffff16600b6000600184610987919061334b565b815260200190815260200160002060010160009054906101000a900473ffffffffffffffffffffffffffffffffffffffff1673ffffffffffffffffffffffffffffffffffffffff1603610b135760006001826109e3919061334b565b90506000600b60008381526020019081526020016000209050806040518060a0016040529081600082015481526020016001820160009054906101000a900473ffffffffffffffffffffffffffffffffffffffff1673ffffffffffffffffffffffffffffffffffffffff1673ffffffffffffffffffffffffffffffffffffffff1681526020016002820160009054906101000a900473ffffffffffffffffffffffffffffffffffffffff1673ffffffffffffffffffffffffffffffffffffffff1673ffffffffffffffffffffffffffffffffffffffff168152602001600382015481526020016004820160009054906101000a900460ff161515151581525050848681518110610af657610af561337f565b5b6020026020010181905250600185610b0e919061334b565b945050505b8080600101915050610957565b508094505050505090565b6000806002600084815260200190815260200160002060009054906101000a900473ffffffffffffffffffffffffffffffffffffffff169050600073ffffffffffffffffffffffffffffffffffffffff168173ffffffffffffffffffffffffffffffffffffffff1603610bd3576040517f08c379a0000000000000000000000000000000000000000000000000000000008152600401610bca906133fa565b60405180910390fd5b80915050919050565b60008073ffffffffffffffffffffffffffffffffffffffff168273ffffffffffffffffffffffffffffffffffffffff1603610c4c576040517f08c379a0000000000000000000000000000000000000000000000000000000008152600401610c439061348c565b60405180910390fd5b600360008373ffffffffffffffffffffffffffffffffffffffff1673ffffffffffffffffffffffffffffffffffffffff168152602001908152602001600020549050919050565b6000610c9f6007611db8565b6000610cab6007611daa565b9050610cb73382611dce565b610cc18185611fa7565b610ccb8184612014565b8091505092915050565b3373ffffffffffffffffffffffffffffffffffffffff16600b600084815260200190815260200160002060020160009054906101000a900473ffffffffffffffffffffffffffffffffffffffff1673ffffffffffffffffffffffffffffffffffffffff1614610d79576040517f08c379a0000000000000000000000000000000000000000000000000000000008152600401610d70906134f8565b60405180910390fd5b600954341015610dbe576040517f08c379a0000000000000000000000000000000000000000000000000000000008152600401610db59061358a565b60405180910390fd5b6000600b600084815260200190815260200160002060040160006101000a81548160ff02191690831515021790555080600b60008481526020019081526020016000206003018190555033600b600084815260200190815260200160002060010160006101000a81548173ffffffffffffffffffffffffffffffffffffffff021916908373ffffffffffffffffffffffffffffffffffffffff16021790555030600b600084815260200190815260200160002060020160006101000a81548173ffffffffffffffffffffffffffffffffffffffff021916908373ffffffffffffffffffffffffffffffffffffffff160217905550610ebc6008612217565b610ec7333084611b44565b5050565b60606000610ed96007611daa565b90506000610ee76008611daa565b610ef16007611daa565b610efb91906135aa565b90506000808267ffffffffffffffff811115610f1a57610f19612d6f565b5b604051908082528060200260200182016040528015610f5357816020015b610f4061283a565b815260200190600190039081610f385790505b50905060005b84811015611122573073ffffffffffffffffffffffffffffffffffffffff16600b6000600184610f89919061334b565b815260200190815260200160002060020160009054906101000a900473ffffffffffffffffffffffffffffffffffffffff1673ffffffffffffffffffffffffffffffffffffffff1603611115576000600182610fe5919061334b565b90506000600b60008381526020019081526020016000209050806040518060a0016040529081600082015481526020016001820160009054906101000a900473ffffffffffffffffffffffffffffffffffffffff1673ffffffffffffffffffffffffffffffffffffffff1673ffffffffffffffffffffffffffffffffffffffff1681526020016002820160009054906101000a900473ffffffffffffffffffffffffffffffffffffffff1673ffffffffffffffffffffffffffffffffffffffff1673ffffffffffffffffffffffffffffffffffffffff168152602001600382015481526020016004820160009054906101000a900460ff1615151515815250508486815181106110f8576110f761337f565b5b6020026020010181905250600185611110919061334b565b945050505b8080600101915050610f59565b508094505050505090565b60606001805461113c90613135565b80601f016020809104026020016040519081016040528092919081815260200182805461116890613135565b80156111b55780601f1061118a576101008083540402835291602001916111b5565b820191906000526020600020905b81548152906001019060200180831161119857829003601f168201915b5050505050905090565b6111d16111ca6119ee565b8383612273565b5050565b600a60009054906101000a900473ffffffffffffffffffffffffffffffffffffffff1673ffffffffffffffffffffffffffffffffffffffff163373ffffffffffffffffffffffffffffffffffffffff1614611265576040517f08c379a000000000000000000000000000000000000000000000000000000000815260040161125c90613650565b60405180910390fd5b8060098190555050565b61128061127a6119ee565b83611aaf565b6112bf576040517f08c379a00000000000000000000000000000000000000000000000000000000081526004016112b6906132fc565b60405180910390fd5b6112cb848484846123df565b50505050565b6000600b600083815260200190815260200160002060030154905080341461132e576040517f08c379a0000000000000000000000000000000000000000000000000000000008152600401611325906136e2565b60405180910390fd5b33600b600084815260200190815260200160002060020160006101000a81548173ffffffffffffffffffffffffffffffffffffffff021916908373ffffffffffffffffffffffffffffffffffffffff1602179055506001600b600084815260200190815260200160002060040160006101000a81548160ff0219169083151502179055506113bc6008611db8565b6113c7303384611b44565b600a60009054906101000a900473ffffffffffffffffffffffffffffffffffffffff1673ffffffffffffffffffffffffffffffffffffffff166108fc6009549081150290604051600060405180830381858888f19350505050158015611431573d6000803e3d6000fd5b50600b600083815260200190815260200160002060010160009054906101000a900473ffffffffffffffffffffffffffffffffffffffff1673ffffffffffffffffffffffffffffffffffffffff166108fc349081150290604051600060405180830381858888f193505050501580156114ae573d6000803e3d6000fd5b505050565b606060006114c16007611daa565b905060008060005b83811015611563573373ffffffffffffffffffffffffffffffffffffffff16600b60006001846114f9919061334b565b815260200190815260200160002060020160009054906101000a900473ffffffffffffffffffffffffffffffffffffffff1673ffffffffffffffffffffffffffffffffffffffff160361155657600183611553919061334b565b92505b80806001019150506114c9565b5060008267ffffffffffffffff8111156115805761157f612d6f565b5b6040519080825280602002602001820160405280156115b957816020015b6115a661283a565b81526020019060019003908161159e5790505b50905060005b84811015611788573373ffffffffffffffffffffffffffffffffffffffff16600b60006001846115ef919061334b565b815260200190815260200160002060020160009054906101000a900473ffffffffffffffffffffffffffffffffffffffff1673ffffffffffffffffffffffffffffffffffffffff160361177b57600060018261164b919061334b565b90506000600b60008381526020019081526020016000209050806040518060a0016040529081600082015481526020016001820160009054906101000a900473ffffffffffffffffffffffffffffffffffffffff1673ffffffffffffffffffffffffffffffffffffffff1673ffffffffffffffffffffffffffffffffffffffff1681526020016002820160009054906101000a900473ffffffffffffffffffffffffffffffffffffffff1673ffffffffffffffffffffffffffffffffffffffff1673ffffffffffffffffffffffffffffffffffffffff168152602001600382015481526020016004820160009054906101000a900460ff16151515158152505084868151811061175e5761175d61337f565b5b6020026020010181905250600185611776919061334b565b945050505b80806001019150506115bf565b508094505050505090565b606061179e826119a3565b60006006600084815260200190815260200160002080546117be90613135565b80601f01602080910402602001604051908101604052809291908181526020018280546117ea90613135565b80156118375780601f1061180c57610100808354040283529160200191611837565b820191906000526020600020905b81548152906001019060200180831161181a57829003601f168201915b50505050509050600061184861243b565b9050600081510361185d5781925050506118a0565b60008251111561189257808260405160200161187a92919061373e565b604051602081830303815290604052925050506118a0565b61189b84612452565b925050505b919050565b6000600560008473ffffffffffffffffffffffffffffffffffffffff1673ffffffffffffffffffffffffffffffffffffffff16815260200190815260200160002060008373ffffffffffffffffffffffffffffffffffffffff1673ffffffffffffffffffffffffffffffffffffffff16815260200190815260200160002060009054906101000a900460ff16905092915050565b60007f01ffc9a7000000000000000000000000000000000000000000000000000000007bffffffffffffffffffffffffffffffffffffffffffffffffffffffff1916827bffffffffffffffffffffffffffffffffffffffffffffffffffffffff1916149050919050565b6119ac816124ba565b6119eb576040517f08c379a00000000000000000000000000000000000000000000000000000000081526004016119e2906133fa565b60405180910390fd5b50565b600033905090565b816004600083815260200190815260200160002060006101000a81548173ffffffffffffffffffffffffffffffffffffffff021916908373ffffffffffffffffffffffffffffffffffffffff160217905550808273ffffffffffffffffffffffffffffffffffffffff16611a6983610b2b565b73ffffffffffffffffffffffffffffffffffffffff167f8c5be1e5ebec7d5bd14f71427d1e84f3dd0314c0f7b2291e5b200ac8c7c3b92560405160405180910390a45050565b600080611abb83610b2b565b90508073ffffffffffffffffffffffffffffffffffffffff168473ffffffffffffffffffffffffffffffffffffffff161480611afd5750611afc81856118a5565b5b80611b3b57508373ffffffffffffffffffffffffffffffffffffffff16611b2384610664565b73ffffffffffffffffffffffffffffffffffffffff16145b91505092915050565b8273ffffffffffffffffffffffffffffffffffffffff16611b6482610b2b565b73ffffffffffffffffffffffffffffffffffffffff1614611bba576040517f08c379a0000000000000000000000000000000000000000000000000000000008152600401611bb1906137d4565b60405180910390fd5b600073ffffffffffffffffffffffffffffffffffffffff168273ffffffffffffffffffffffffffffffffffffffff1603611c29576040517f08c379a0000000000000000000000000000000000000000000000000000000008152600401611c2090613866565b60405180910390fd5b611c34838383612526565b611c3f6000826119f6565b6001600360008573ffffffffffffffffffffffffffffffffffffffff1673ffffffffffffffffffffffffffffffffffffffff1681526020019081526020016000206000828254611c8f91906135aa565b925050819055506001600360008473ffffffffffffffffffffffffffffffffffffffff1673ffffffffffffffffffffffffffffffffffffffff1681526020019081526020016000206000828254611ce6919061334b565b92505081905550816002600083815260200190815260200160002060006101000a81548173ffffffffffffffffffffffffffffffffffffffff021916908373ffffffffffffffffffffffffffffffffffffffff160217905550808273ffffffffffffffffffffffffffffffffffffffff168473ffffffffffffffffffffffffffffffffffffffff167fddf252ad1be2c89b69c2b068fc378daa952ba7f163c4a11628f55a4df523b3ef60405160405180910390a4611da583838361252b565b505050565b600081600001549050919050565b6001816000016000828254019250508190555050565b600073ffffffffffffffffffffffffffffffffffffffff168273ffffffffffffffffffffffffffffffffffffffff1603611e3d576040517f08c379a0000000000000000000000000000000000000000000000000000000008152600401611e34906138d2565b60405180910390fd5b611e46816124ba565b15611e86576040517f08c379a0000000000000000000000000000000000000000000000000000000008152600401611e7d9061393e565b60405180910390fd5b611e9260008383612526565b6001600360008473ffffffffffffffffffffffffffffffffffffffff1673ffffffffffffffffffffffffffffffffffffffff1681526020019081526020016000206000828254611ee2919061334b565b92505081905550816002600083815260200190815260200160002060006101000a81548173ffffffffffffffffffffffffffffffffffffffff021916908373ffffffffffffffffffffffffffffffffffffffff160217905550808273ffffffffffffffffffffffffffffffffffffffff16600073ffffffffffffffffffffffffffffffffffffffff167fddf252ad1be2c89b69c2b068fc378daa952ba7f163c4a11628f55a4df523b3ef60405160405180910390a4611fa36000838361252b565b5050565b611fb0826124ba565b611fef576040517f08c379a0000000000000000000000000000000000000000000000000000000008152600401611fe6906139d0565b60405180910390fd5b8060066000848152602001908152602001600020908161200f9190613b9c565b505050565b60008111612057576040517f08c379a000000000000000000000000000000000000000000000000000000000815260040161204e90613cba565b60405180910390fd5b600954341461209b576040517f08c379a000000000000000000000000000000000000000000000000000000000815260040161209290613d4c565b60405180910390fd5b6040518060a001604052808381526020013373ffffffffffffffffffffffffffffffffffffffff1681526020013073ffffffffffffffffffffffffffffffffffffffff16815260200182815260200160001515815250600b60008481526020019081526020016000206000820151816000015560208201518160010160006101000a81548173ffffffffffffffffffffffffffffffffffffffff021916908373ffffffffffffffffffffffffffffffffffffffff16021790555060408201518160020160006101000a81548173ffffffffffffffffffffffffffffffffffffffff021916908373ffffffffffffffffffffffffffffffffffffffff1602179055506060820151816003015560808201518160040160006101000a81548160ff0219169083151502179055509050506121d4333084611b44565b817fdebdb32cb5230ab727c9c361b16fdb2015df225c10e6a3e7f60ecd5dc5be4516333084600060405161220b9493929190613d6c565b60405180910390a25050565b60008160000154905060008111612263576040517f08c379a000000000000000000000000000000000000000000000000000000000815260040161225a90613dfd565b60405180910390fd5b6001810382600001819055505050565b8173ffffffffffffffffffffffffffffffffffffffff168373ffffffffffffffffffffffffffffffffffffffff16036122e1576040517f08c379a00000000000000000000000000000000000000000000000000000000081526004016122d890613e69565b60405180910390fd5b80600560008573ffffffffffffffffffffffffffffffffffffffff1673ffffffffffffffffffffffffffffffffffffffff16815260200190815260200160002060008473ffffffffffffffffffffffffffffffffffffffff1673ffffffffffffffffffffffffffffffffffffffff16815260200190815260200160002060006101000a81548160ff0219169083151502179055508173ffffffffffffffffffffffffffffffffffffffff168373ffffffffffffffffffffffffffffffffffffffff167f17307eab39ab6107e8899845ad3d59bd9653f200f220920489ca2b5937696c31836040516123d2919061294b565b60405180910390a3505050565b6123ea848484611b44565b6123f684848484612530565b612435576040517f08c379a000000000000000000000000000000000000000000000000000000000815260040161242c90613efb565b60405180910390fd5b50505050565b606060405180602001604052806000815250905090565b606061245d826119a3565b600061246761243b565b9050600081511161248757604051806020016040528060008152506124b2565b80612491846126b7565b6040516020016124a292919061373e565b6040516020818303038152906040525b915050919050565b60008073ffffffffffffffffffffffffffffffffffffffff166002600084815260200190815260200160002060009054906101000a900473ffffffffffffffffffffffffffffffffffffffff1673ffffffffffffffffffffffffffffffffffffffff1614159050919050565b505050565b505050565b60006125518473ffffffffffffffffffffffffffffffffffffffff16612817565b156126aa578373ffffffffffffffffffffffffffffffffffffffff1663150b7a0261257a6119ee565b8786866040518563ffffffff1660e01b815260040161259c9493929190613f70565b6020604051808303816000875af19250505080156125d857506040513d601f19601f820116820180604052508101906125d59190613fd1565b60015b61265a573d8060008114612608576040519150601f19603f3d011682016040523d82523d6000602084013e61260d565b606091505b506000815103612652576040517f08c379a000000000000000000000000000000000000000000000000000000000815260040161264990613efb565b60405180910390fd5b805181602001fd5b63150b7a0260e01b7bffffffffffffffffffffffffffffffffffffffffffffffffffffffff1916817bffffffffffffffffffffffffffffffffffffffffffffffffffffffff1916149150506126af565b600190505b949350505050565b6060600082036126fe576040518060400160405280600181526020017f30000000000000000000000000000000000000000000000000000000000000008152509050612812565b600082905060005b6000821461273057808061271990613ffe565b915050600a826127299190614075565b9150612706565b60008167ffffffffffffffff81111561274c5761274b612d6f565b5b6040519080825280601f01601f19166020018201604052801561277e5781602001600182028036833780820191505090505b5090505b6000851461280b5760018261279791906135aa565b9150600a856127a691906140a6565b60306127b2919061334b565b60f81b8183815181106127c8576127c761337f565b5b60200101907effffffffffffffffffffffffffffffffffffffffffffffffffffffffffffff1916908160001a905350600a856128049190614075565b9450612782565b8093505050505b919050565b6000808273ffffffffffffffffffffffffffffffffffffffff163b119050919050565b6040518060a0016040528060008152602001600073ffffffffffffffffffffffffffffffffffffffff168152602001600073ffffffffffffffffffffffffffffffffffffffff168152602001600081526020016000151581525090565b6000604051905090565b600080fd5b600080fd5b60007fffffffff0000000000000000000000000000000000000000000000000000000082169050919050565b6128e0816128ab565b81146128eb57600080fd5b50565b6000813590506128fd816128d7565b92915050565b600060208284031215612919576129186128a1565b5b6000612927848285016128ee565b91505092915050565b60008115159050919050565b61294581612930565b82525050565b6000602082019050612960600083018461293c565b92915050565b600081519050919050565b600082825260208201905092915050565b60005b838110156129a0578082015181840152602081019050612985565b60008484015250505050565b6000601f19601f8301169050919050565b60006129c882612966565b6129d28185612971565b93506129e2818560208601612982565b6129eb816129ac565b840191505092915050565b60006020820190508181036000830152612a1081846129bd565b905092915050565b6000819050919050565b612a2b81612a18565b8114612a3657600080fd5b50565b600081359050612a4881612a22565b92915050565b600060208284031215612a6457612a636128a1565b5b6000612a7284828501612a39565b91505092915050565b600073ffffffffffffffffffffffffffffffffffffffff82169050919050565b6000612aa682612a7b565b9050919050565b612ab681612a9b565b82525050565b6000602082019050612ad16000830184612aad565b92915050565b612ae081612a9b565b8114612aeb57600080fd5b50565b600081359050612afd81612ad7565b92915050565b60008060408385031215612b1a57612b196128a1565b5b6000612b2885828601612aee565b9250506020612b3985828601612a39565b9150509250929050565b612b4c81612a18565b82525050565b6000602082019050612b676000830184612b43565b92915050565b600080600060608486031215612b8657612b856128a1565b5b6000612b9486828701612aee565b9350506020612ba586828701612aee565b9250506040612bb686828701612a39565b9150509250925092565b600081519050919050565b600082825260208201905092915050565b6000819050602082019050919050565b612bf581612a18565b82525050565b6000612c0682612a7b565b9050919050565b612c1681612bfb565b82525050565b612c2581612930565b82525050565b60a082016000820151612c416000850182612bec565b506020820151612c546020850182612c0d565b506040820151612c676040850182612c0d565b506060820151612c7a6060850182612bec565b506080820151612c8d6080850182612c1c565b50505050565b6000612c9f8383612c2b565b60a08301905092915050565b6000602082019050919050565b6000612cc382612bc0565b612ccd8185612bcb565b9350612cd883612bdc565b8060005b83811015612d09578151612cf08882612c93565b9750612cfb83612cab565b925050600181019050612cdc565b5085935050505092915050565b60006020820190508181036000830152612d308184612cb8565b905092915050565b600060208284031215612d4e57612d4d6128a1565b5b6000612d5c84828501612aee565b91505092915050565b600080fd5b600080fd5b7f4e487b7100000000000000000000000000000000000000000000000000000000600052604160045260246000fd5b612da7826129ac565b810181811067ffffffffffffffff82111715612dc657612dc5612d6f565b5b80604052505050565b6000612dd9612897565b9050612de58282612d9e565b919050565b600067ffffffffffffffff821115612e0557612e04612d6f565b5b612e0e826129ac565b9050602081019050919050565b82818337600083830152505050565b6000612e3d612e3884612dea565b612dcf565b905082815260208101848484011115612e5957612e58612d6a565b5b612e64848285612e1b565b509392505050565b600082601f830112612e8157612e80612d65565b5b8135612e91848260208601612e2a565b91505092915050565b60008060408385031215612eb157612eb06128a1565b5b600083013567ffffffffffffffff811115612ecf57612ece6128a6565b5b612edb85828601612e6c565b9250506020612eec85828601612a39565b9150509250929050565b60008060408385031215612f0d57612f0c6128a1565b5b6000612f1b85828601612a39565b9250506020612f2c85828601612a39565b9150509250929050565b612f3f81612930565b8114612f4a57600080fd5b50565b600081359050612f5c81612f36565b92915050565b60008060408385031215612f7957612f786128a1565b5b6000612f8785828601612aee565b9250506020612f9885828601612f4d565b9150509250929050565b600067ffffffffffffffff821115612fbd57612fbc612d6f565b5b612fc6826129ac565b9050602081019050919050565b6000612fe6612fe184612fa2565b612dcf565b90508281526020810184848401111561300257613001612d6a565b5b61300d848285612e1b565b509392505050565b600082601f83011261302a57613029612d65565b5b813561303a848260208601612fd3565b91505092915050565b6000806000806080858703121561305d5761305c6128a1565b5b600061306b87828801612aee565b945050602061307c87828801612aee565b935050604061308d87828801612a39565b925050606085013567ffffffffffffffff8111156130ae576130ad6128a6565b5b6130ba87828801613015565b91505092959194509250565b600080604083850312156130dd576130dc6128a1565b5b60006130eb85828601612aee565b92505060206130fc85828601612aee565b9150509250929050565b7f4e487b7100000000000000000000000000000000000000000000000000000000600052602260045260246000fd5b6000600282049050600182168061314d57607f821691505b6020821081036131605761315f613106565b5b50919050565b7f4552433732313a20617070726f76616c20746f2063757272656e74206f776e6560008201527f7200000000000000000000000000000000000000000000000000000000000000602082015250565b60006131c2602183612971565b91506131cd82613166565b604082019050919050565b600060208201905081810360008301526131f1816131b5565b9050919050565b7f4552433732313a20617070726f76652063616c6c6572206973206e6f7420746f60008201527f6b656e206f776e6572206e6f7220617070726f76656420666f7220616c6c0000602082015250565b6000613254603e83612971565b915061325f826131f8565b604082019050919050565b6000602082019050818103600083015261328381613247565b9050919050565b7f4552433732313a2063616c6c6572206973206e6f7420746f6b656e206f776e6560008201527f72206e6f7220617070726f766564000000000000000000000000000000000000602082015250565b60006132e6602e83612971565b91506132f18261328a565b604082019050919050565b60006020820190508181036000830152613315816132d9565b9050919050565b7f4e487b7100000000000000000000000000000000000000000000000000000000600052601160045260246000fd5b600061335682612a18565b915061336183612a18565b92508282019050808211156133795761337861331c565b5b92915050565b7f4e487b7100000000000000000000000000000000000000000000000000000000600052603260045260246000fd5b7f4552433732313a20696e76616c696420746f6b656e2049440000000000000000600082015250565b60006133e4601883612971565b91506133ef826133ae565b602082019050919050565b60006020820190508181036000830152613413816133d7565b9050919050565b7f4552433732313a2061646472657373207a65726f206973206e6f74206120766160008201527f6c6964206f776e65720000000000000000000000000000000000000000000000602082015250565b6000613476602983612971565b91506134818261341a565b604082019050919050565b600060208201905081810360008301526134a581613469565b9050919050565b7f4f6e6c79204e4654204f776e65722063616e2073656c6c20746865204e465400600082015250565b60006134e2601f83612971565b91506134ed826134ac565b602082019050919050565b60006020820190508181036000830152613511816134d5565b9050919050565b7f5072696365204d7573742062652067726561746572207468616e206f7220657160008201527f75616c20746f20746865206c697374696e672070726963650000000000000000602082015250565b6000613574603883612971565b915061357f82613518565b604082019050919050565b600060208201905081810360008301526135a381613567565b9050919050565b60006135b582612a18565b91506135c083612a18565b92508282039050818111156135d8576135d761331c565b5b92915050565b7f6f6e6c79206f776e6572206f6620746865206d61726b6574706c61636520636160008201527f6e206368616e676520746865206c697374696e67207072696365000000000000602082015250565b600061363a603a83612971565b9150613645826135de565b604082019050919050565b600060208201905081810360008301526136698161362d565b9050919050565b7f506c65617365207375626d6974207468652061736b696e67207072696365207460008201527f6f20636f6d706c65746520746865207075726368617365000000000000000000602082015250565b60006136cc603783612971565b91506136d782613670565b604082019050919050565b600060208201905081810360008301526136fb816136bf565b9050919050565b600081905092915050565b600061371882612966565b6137228185613702565b9350613732818560208601612982565b80840191505092915050565b600061374a828561370d565b9150613756828461370d565b91508190509392505050565b7f4552433732313a207472616e736665722066726f6d20696e636f72726563742060008201527f6f776e6572000000000000000000000000000000000000000000000000000000602082015250565b60006137be602583612971565b91506137c982613762565b604082019050919050565b600060208201905081810360008301526137ed816137b1565b9050919050565b7f4552433732313a207472616e7366657220746f20746865207a65726f2061646460008201527f7265737300000000000000000000000000000000000000000000000000000000602082015250565b6000613850602483612971565b915061385b826137f4565b604082019050919050565b6000602082019050818103600083015261387f81613843565b9050919050565b7f4552433732313a206d696e7420746f20746865207a65726f2061646472657373600082015250565b60006138bc602083612971565b91506138c782613886565b602082019050919050565b600060208201905081810360008301526138eb816138af565b9050919050565b7f4552433732313a20746f6b656e20616c7265616479206d696e74656400000000600082015250565b6000613928601c83612971565b9150613933826138f2565b602082019050919050565b600060208201905081810360008301526139578161391b565b9050919050565b7f45524337323155524953746f726167653a2055524920736574206f66206e6f6e60008201527f6578697374656e7420746f6b656e000000000000000000000000000000000000602082015250565b60006139ba602e83612971565b91506139c58261395e565b604082019050919050565b600060208201905081810360008301526139e9816139ad565b9050919050565b60008190508160005260206000209050919050565b60006020601f8301049050919050565b600082821b905092915050565b600060088302613a527fffffffffffffffffffffffffffffffffffffffffffffffffffffffffffffffff82613a15565b613a5c8683613a15565b95508019841693508086168417925050509392505050565b6000819050919050565b6000613a99613a94613a8f84612a18565b613a74565b612a18565b9050919050565b6000819050919050565b613ab383613a7e565b613ac7613abf82613aa0565b848454613a22565b825550505050565b600090565b613adc613acf565b613ae7818484613aaa565b505050565b5b81811015613b0b57613b00600082613ad4565b600181019050613aed565b5050565b601f821115613b5057613b21816139f0565b613b2a84613a05565b81016020851015613b39578190505b613b4d613b4585613a05565b830182613aec565b50505b505050565b600082821c905092915050565b6000613b7360001984600802613b55565b1980831691505092915050565b6000613b8c8383613b62565b9150826002028217905092915050565b613ba582612966565b67ffffffffffffffff811115613bbe57613bbd612d6f565b5b613bc88254613135565b613bd3828285613b0f565b600060209050601f831160018114613c065760008415613bf4578287015190505b613bfe8582613b80565b865550613c66565b601f198416613c14866139f0565b60005b82811015613c3c57848901518255600182019150602085019450602081019050613c17565b86831015613c595784890151613c55601f891682613b62565b8355505b6001600288020188555050505b505050505050565b7f5072696365206d7573742062652067726561746572207468616e203000000000600082015250565b6000613ca4601c83612971565b9150613caf82613c6e565b602082019050919050565b60006020820190508181036000830152613cd381613c97565b9050919050565b7f5072696365204d75737420626520657175616c20746f20746865206c6973746960008201527f6e67207072696365000000000000000000000000000000000000000000000000602082015250565b6000613d36602883612971565b9150613d4182613cda565b604082019050919050565b60006020820190508181036000830152613d6581613d29565b9050919050565b6000608082019050613d816000830187612aad565b613d8e6020830186612aad565b613d9b6040830185612b43565b613da8606083018461293c565b95945050505050565b7f436f756e7465723a2064656372656d656e74206f766572666c6f770000000000600082015250565b6000613de7601b83612971565b9150613df282613db1565b602082019050919050565b60006020820190508181036000830152613e1681613dda565b9050919050565b7f4552433732313a20617070726f766520746f2063616c6c657200000000000000600082015250565b6000613e53601983612971565b9150613e5e82613e1d565b602082019050919050565b60006020820190508181036000830152613e8281613e46565b9050919050565b7f4552433732313a207472616e7366657220746f206e6f6e20455243373231526560008201527f63656976657220696d706c656d656e7465720000000000000000000000000000602082015250565b6000613ee5603283612971565b9150613ef082613e89565b604082019050919050565b60006020820190508181036000830152613f1481613ed8565b9050919050565b600081519050919050565b600082825260208201905092915050565b6000613f4282613f1b565b613f4c8185613f26565b9350613f5c818560208601612982565b613f65816129ac565b840191505092915050565b6000608082019050613f856000830187612aad565b613f926020830186612aad565b613f9f6040830185612b43565b8181036060830152613fb18184613f37565b905095945050505050565b600081519050613fcb816128d7565b92915050565b600060208284031215613fe757613fe66128a1565b5b6000613ff584828501613fbc565b91505092915050565b600061400982612a18565b91507fffffffffffffffffffffffffffffffffffffffffffffffffffffffffffffffff820361403b5761403a61331c565b5b600182019050919050565b7f4e487b7100000000000000000000000000000000000000000000000000000000600052601260045260246000fd5b600061408082612a18565b915061408b83612a18565b92508261409b5761409a614046565b5b828204905092915050565b60006140b182612a18565b91506140bc83612a18565b9250826140cc576140cb614046565b5b82820690509291505056fea264697066735822122050c255eb837aa66d7cf84531ca14e59dcd8a5a8e7c4aa7d3b19c42fcfb5e44a764736f6c63430008180033",
  "linkReferences": {},
  "deployedLinkReferences": {}
}