{
  "_format": "hh-sol-artifact-1",
  "contractName": "NFTBazzar",
  "sourceName": "contracts/NFTBazzar.sol",
  "abi": [
    {
      "inputs": [],
      "stateMutability": "nonpayable",
      "type": "constructor"
    },
    {
      "anonymous": false,
      "inputs": [
        {
          "indexed": true,
          "internalType": "address",
          "name": "owner",
          "type": "address"
        },
        {
          "indexed": true,
          "internalType": "address",
          "name": "approved",
          "type": "address"
        },
        {
          "indexed": true,
          "internalType": "uint256",
          "name": "tokenId",
          "type": "uint256"
        }
      ],
      "name": "Approval",
      "type": "event"
    },
    {
      "anonymous": false,
      "inputs": [
        {
          "indexed": true,
          "internalType": "address",
          "name": "owner",
          "type": "address"
        },
        {
          "indexed": true,
          "internalType": "address",
          "name": "operator",
          "type": "address"
        },
        {
          "indexed": false,
          "internalType": "bool",
          "name": "approved",
          "type": "bool"
        }
      ],
      "name": "ApprovalForAll",
      "type": "event"
    },
    {
      "anonymous": false,
      "inputs": [
        {
          "indexed": true,
          "internalType": "uint256",
          "name": "tokenId",
          "type": "uint256"
        },
        {
          "indexed": false,
          "internalType": "address",
          "name": "winner",
          "type": "address"
        },
        {
          "indexed": false,
          "internalType": "uint256",
          "name": "highestBid",
          "type": "uint256"
        }
      ],
      "name": "AuctionEnded",
      "type": "event"
    },
    {
      "anonymous": false,
      "inputs": [
        {
          "indexed": true,
          "internalType": "uint256",
          "name": "tokenId",
          "type": "uint256"
        },
        {
          "indexed": false,
          "internalType": "uint256",
          "name": "minBid",
          "type": "uint256"
        },
        {
          "indexed": false,
          "internalType": "uint256",
          "name": "duration",
          "type": "uint256"
        }
      ],
      "name": "AuctionStarted",
      "type": "event"
    },
    {
      "anonymous": false,
      "inputs": [
        {
          "indexed": true,
          "internalType": "uint256",
          "name": "tokenId",
          "type": "uint256"
        },
        {
          "indexed": false,
          "internalType": "address",
          "name": "bidder",
          "type": "address"
        },
        {
          "indexed": false,
          "internalType": "uint256",
          "name": "bid",
          "type": "uint256"
        }
      ],
      "name": "NewBid",
      "type": "event"
    },
    {
      "anonymous": false,
      "inputs": [
        {
          "indexed": true,
          "internalType": "uint256",
          "name": "tokenId",
          "type": "uint256"
        },
        {
          "indexed": false,
          "internalType": "string",
          "name": "tokenURI",
          "type": "string"
        },
        {
          "indexed": false,
          "internalType": "uint256",
          "name": "price",
          "type": "uint256"
        }
      ],
      "name": "TokenCreated",
      "type": "event"
    },
    {
      "anonymous": false,
      "inputs": [
        {
          "indexed": true,
          "internalType": "address",
          "name": "from",
          "type": "address"
        },
        {
          "indexed": true,
          "internalType": "address",
          "name": "to",
          "type": "address"
        },
        {
          "indexed": true,
          "internalType": "uint256",
          "name": "tokenId",
          "type": "uint256"
        }
      ],
      "name": "Transfer",
      "type": "event"
    },
    {
      "anonymous": false,
      "inputs": [
        {
          "indexed": true,
          "internalType": "uint256",
          "name": "tokenId",
          "type": "uint256"
        },
        {
          "indexed": false,
          "internalType": "address",
          "name": "seller",
          "type": "address"
        },
        {
          "indexed": false,
          "internalType": "address",
          "name": "owner",
          "type": "address"
        },
        {
          "indexed": false,
          "internalType": "address",
          "name": "creator",
          "type": "address"
        },
        {
          "indexed": false,
          "internalType": "address",
          "name": "contractt",
          "type": "address"
        },
        {
          "indexed": false,
          "internalType": "uint256",
          "name": "price",
          "type": "uint256"
        },
        {
          "indexed": false,
          "internalType": "bool",
          "name": "sold",
          "type": "bool"
        },
        {
          "indexed": false,
          "internalType": "bool",
          "name": "onAuction",
          "type": "bool"
        },
        {
          "indexed": false,
          "internalType": "bool",
          "name": "onSale",
          "type": "bool"
        }
      ],
      "name": "idMarketItemCreated",
      "type": "event"
    },
    {
      "inputs": [
        {
          "internalType": "address",
          "name": "to",
          "type": "address"
        },
        {
          "internalType": "uint256",
          "name": "tokenId",
          "type": "uint256"
        }
      ],
      "name": "approve",
      "outputs": [],
      "stateMutability": "nonpayable",
      "type": "function"
    },
    {
      "inputs": [
        {
          "internalType": "address",
          "name": "owner",
          "type": "address"
        }
      ],
      "name": "balanceOf",
      "outputs": [
        {
          "internalType": "uint256",
          "name": "",
          "type": "uint256"
        }
      ],
      "stateMutability": "view",
      "type": "function"
    },
    {
      "inputs": [
        {
          "internalType": "uint256",
          "name": "tokenId",
          "type": "uint256"
        }
      ],
      "name": "bid",
      "outputs": [],
      "stateMutability": "payable",
      "type": "function"
    },
    {
      "inputs": [
        {
          "internalType": "uint256",
          "name": "tokenId",
          "type": "uint256"
        }
      ],
      "name": "createMarketSale",
      "outputs": [],
      "stateMutability": "payable",
      "type": "function"
    },
    {
      "inputs": [
        {
          "internalType": "string",
          "name": "tokenURI",
          "type": "string"
        },
        {
          "internalType": "uint256",
          "name": "price",
          "type": "uint256"
        }
      ],
      "name": "createToken",
      "outputs": [
        {
          "internalType": "uint256",
          "name": "",
          "type": "uint256"
        }
      ],
      "stateMutability": "payable",
      "type": "function"
    },
    {
      "inputs": [
        {
          "internalType": "uint256",
          "name": "tokenId",
          "type": "uint256"
        }
      ],
      "name": "endAuction",
      "outputs": [],
      "stateMutability": "nonpayable",
      "type": "function"
    },
    {
      "inputs": [],
      "name": "fetchAuctionItem",
      "outputs": [
        {
          "components": [
            {
              "internalType": "uint256",
              "name": "tokenId",
              "type": "uint256"
            },
            {
              "internalType": "address payable",
              "name": "seller",
              "type": "address"
            },
            {
              "internalType": "uint256",
              "name": "minBid",
              "type": "uint256"
            },
            {
              "internalType": "uint256",
              "name": "highestBid",
              "type": "uint256"
            },
            {
              "internalType": "address payable",
              "name": "highestBidder",
              "type": "address"
            },
            {
              "internalType": "uint256",
              "name": "auctionEndTime",
              "type": "uint256"
            },
            {
              "internalType": "bool",
              "name": "active",
              "type": "bool"
            }
          ],
          "internalType": "struct NFTBazzar.Auction[]",
          "name": "",
          "type": "tuple[]"
        }
      ],
      "stateMutability": "view",
      "type": "function"
    },
    {
      "inputs": [
        {
          "internalType": "address",
          "name": "userAdd",
          "type": "address"
        }
      ],
      "name": "fetchItemsListed",
      "outputs": [
        {
          "components": [
            {
              "internalType": "uint256",
              "name": "_tokenId",
              "type": "uint256"
            },
            {
              "internalType": "address payable",
              "name": "seller",
              "type": "address"
            },
            {
              "internalType": "address payable",
              "name": "owner",
              "type": "address"
            },
            {
              "internalType": "address payable",
              "name": "creator",
              "type": "address"
            },
            {
              "internalType": "address payable",
              "name": "contractt",
              "type": "address"
            },
            {
              "internalType": "uint256",
              "name": "price",
              "type": "uint256"
            },
            {
              "internalType": "bool",
              "name": "sold",
              "type": "bool"
            },
            {
              "internalType": "bool",
              "name": "onAuction",
              "type": "bool"
            },
            {
              "internalType": "bool",
              "name": "onSale",
              "type": "bool"
            }
          ],
          "internalType": "struct NFTBazzar.MarketItem[]",
          "name": "",
          "type": "tuple[]"
        }
      ],
      "stateMutability": "view",
      "type": "function"
    },
    {
      "inputs": [],
      "name": "fetchMarketItem",
      "outputs": [
        {
          "components": [
            {
              "internalType": "uint256",
              "name": "_tokenId",
              "type": "uint256"
            },
            {
              "internalType": "address payable",
              "name": "seller",
              "type": "address"
            },
            {
              "internalType": "address payable",
              "name": "owner",
              "type": "address"
            },
            {
              "internalType": "address payable",
              "name": "creator",
              "type": "address"
            },
            {
              "internalType": "address payable",
              "name": "contractt",
              "type": "address"
            },
            {
              "internalType": "uint256",
              "name": "price",
              "type": "uint256"
            },
            {
              "internalType": "bool",
              "name": "sold",
              "type": "bool"
            },
            {
              "internalType": "bool",
              "name": "onAuction",
              "type": "bool"
            },
            {
              "internalType": "bool",
              "name": "onSale",
              "type": "bool"
            }
          ],
          "internalType": "struct NFTBazzar.MarketItem[]",
          "name": "",
          "type": "tuple[]"
        }
      ],
      "stateMutability": "view",
      "type": "function"
    },
    {
      "inputs": [
        {
          "internalType": "uint256",
          "name": "tokenId",
          "type": "uint256"
        }
      ],
      "name": "fetchSingleAuctionItem",
      "outputs": [
        {
          "components": [
            {
              "internalType": "uint256",
              "name": "tokenId",
              "type": "uint256"
            },
            {
              "internalType": "address payable",
              "name": "seller",
              "type": "address"
            },
            {
              "internalType": "uint256",
              "name": "minBid",
              "type": "uint256"
            },
            {
              "internalType": "uint256",
              "name": "highestBid",
              "type": "uint256"
            },
            {
              "internalType": "address payable",
              "name": "highestBidder",
              "type": "address"
            },
            {
              "internalType": "uint256",
              "name": "auctionEndTime",
              "type": "uint256"
            },
            {
              "internalType": "bool",
              "name": "active",
              "type": "bool"
            }
          ],
          "internalType": "struct NFTBazzar.Auction[]",
          "name": "",
          "type": "tuple[]"
        }
      ],
      "stateMutability": "view",
      "type": "function"
    },
    {
      "inputs": [
        {
          "internalType": "uint256",
          "name": "tokenID",
          "type": "uint256"
        }
      ],
      "name": "fetchSingleItem",
      "outputs": [
        {
          "components": [
            {
              "internalType": "uint256",
              "name": "_tokenId",
              "type": "uint256"
            },
            {
              "internalType": "address payable",
              "name": "seller",
              "type": "address"
            },
            {
              "internalType": "address payable",
              "name": "owner",
              "type": "address"
            },
            {
              "internalType": "address payable",
              "name": "creator",
              "type": "address"
            },
            {
              "internalType": "address payable",
              "name": "contractt",
              "type": "address"
            },
            {
              "internalType": "uint256",
              "name": "price",
              "type": "uint256"
            },
            {
              "internalType": "bool",
              "name": "sold",
              "type": "bool"
            },
            {
              "internalType": "bool",
              "name": "onAuction",
              "type": "bool"
            },
            {
              "internalType": "bool",
              "name": "onSale",
              "type": "bool"
            }
          ],
          "internalType": "struct NFTBazzar.MarketItem[]",
          "name": "",
          "type": "tuple[]"
        }
      ],
      "stateMutability": "view",
      "type": "function"
    },
    {
      "inputs": [
        {
          "internalType": "uint256",
          "name": "tokenId",
          "type": "uint256"
        }
      ],
      "name": "getApproved",
      "outputs": [
        {
          "internalType": "address",
          "name": "",
          "type": "address"
        }
      ],
      "stateMutability": "view",
      "type": "function"
    },
    {
      "inputs": [],
      "name": "getListingPrice",
      "outputs": [
        {
          "internalType": "uint256",
          "name": "",
          "type": "uint256"
        }
      ],
      "stateMutability": "view",
      "type": "function"
    },
    {
      "inputs": [
        {
          "internalType": "address",
          "name": "owner",
          "type": "address"
        },
        {
          "internalType": "address",
          "name": "operator",
          "type": "address"
        }
      ],
      "name": "isApprovedForAll",
      "outputs": [
        {
          "internalType": "bool",
          "name": "",
          "type": "bool"
        }
      ],
      "stateMutability": "view",
      "type": "function"
    },
    {
      "inputs": [],
      "name": "name",
      "outputs": [
        {
          "internalType": "string",
          "name": "",
          "type": "string"
        }
      ],
      "stateMutability": "view",
      "type": "function"
    },
    {
      "inputs": [
        {
          "internalType": "uint256",
          "name": "tokenId",
          "type": "uint256"
        }
      ],
      "name": "ownerOf",
      "outputs": [
        {
          "internalType": "address",
          "name": "",
          "type": "address"
        }
      ],
      "stateMutability": "view",
      "type": "function"
    },
    {
      "inputs": [
        {
          "internalType": "uint256",
          "name": "tokenId",
          "type": "uint256"
        },
        {
          "internalType": "uint256",
          "name": "price",
          "type": "uint256"
        }
      ],
      "name": "reSellToken",
      "outputs": [],
      "stateMutability": "payable",
      "type": "function"
    },
    {
      "inputs": [
        {
          "internalType": "address",
          "name": "from",
          "type": "address"
        },
        {
          "internalType": "address",
          "name": "to",
          "type": "address"
        },
        {
          "internalType": "uint256",
          "name": "tokenId",
          "type": "uint256"
        }
      ],
      "name": "safeTransferFrom",
      "outputs": [],
      "stateMutability": "nonpayable",
      "type": "function"
    },
    {
      "inputs": [
        {
          "internalType": "address",
          "name": "from",
          "type": "address"
        },
        {
          "internalType": "address",
          "name": "to",
          "type": "address"
        },
        {
          "internalType": "uint256",
          "name": "tokenId",
          "type": "uint256"
        },
        {
          "internalType": "bytes",
          "name": "data",
          "type": "bytes"
        }
      ],
      "name": "safeTransferFrom",
      "outputs": [],
      "stateMutability": "nonpayable",
      "type": "function"
    },
    {
      "inputs": [
        {
          "internalType": "address",
          "name": "operator",
          "type": "address"
        },
        {
          "internalType": "bool",
          "name": "approved",
          "type": "bool"
        }
      ],
      "name": "setApprovalForAll",
      "outputs": [],
      "stateMutability": "nonpayable",
      "type": "function"
    },
    {
      "inputs": [
        {
          "internalType": "uint256",
          "name": "tokenId",
          "type": "uint256"
        },
        {
          "internalType": "uint256",
          "name": "minBid",
          "type": "uint256"
        },
        {
          "internalType": "uint256",
          "name": "auctionDuration",
          "type": "uint256"
        }
      ],
      "name": "startAuction",
      "outputs": [],
      "stateMutability": "nonpayable",
      "type": "function"
    },
    {
      "inputs": [
        {
          "internalType": "bytes4",
          "name": "interfaceId",
          "type": "bytes4"
        }
      ],
      "name": "supportsInterface",
      "outputs": [
        {
          "internalType": "bool",
          "name": "",
          "type": "bool"
        }
      ],
      "stateMutability": "view",
      "type": "function"
    },
    {
      "inputs": [],
      "name": "symbol",
      "outputs": [
        {
          "internalType": "string",
          "name": "",
          "type": "string"
        }
      ],
      "stateMutability": "view",
      "type": "function"
    },
    {
      "inputs": [
        {
          "internalType": "uint256",
          "name": "tokenId",
          "type": "uint256"
        }
      ],
      "name": "tokenURI",
      "outputs": [
        {
          "internalType": "string",
          "name": "",
          "type": "string"
        }
      ],
      "stateMutability": "view",
      "type": "function"
    },
    {
      "inputs": [
        {
          "internalType": "address",
          "name": "from",
          "type": "address"
        },
        {
          "internalType": "address",
          "name": "to",
          "type": "address"
        },
        {
          "internalType": "uint256",
          "name": "tokenId",
          "type": "uint256"
        }
      ],
      "name": "transferFrom",
      "outputs": [],
      "stateMutability": "nonpayable",
      "type": "function"
    },
    {
      "inputs": [
        {
          "internalType": "uint256",
          "name": "_listingPrice",
          "type": "uint256"
        }
      ],
      "name": "updateListingPrice",
      "outputs": [],
      "stateMutability": "payable",
      "type": "function"
    }
  ],
  "bytecode": "0x60806040526608e1bc9bf04000600a553480156200001c57600080fd5b506040518060400160405280600981526020016827232a2130bd3d30b960b91b81525060405180604001604052806005815260200164135653919560da1b81525081600090816200006e919062000144565b5060016200007d828262000144565b5050600160075550600b80546001600160a01b0319163317905562000210565b634e487b7160e01b600052604160045260246000fd5b600181811c90821680620000c857607f821691505b602082108103620000e957634e487b7160e01b600052602260045260246000fd5b50919050565b601f8211156200013f576000816000526020600020601f850160051c810160208610156200011a5750805b601f850160051c820191505b818110156200013b5782815560010162000126565b5050505b505050565b81516001600160401b038111156200016057620001606200009d565b6200017881620001718454620000b3565b84620000ef565b602080601f831160018114620001b05760008415620001975750858301515b600019600386901b1c1916600185901b1785556200013b565b600085815260208120601f198616915b82811015620001e157888601518255948401946001909101908401620001c0565b5085821015620002005787850151600019600388901b60f8161c191681555b5050505050600190811b01905550565b6130d980620002206000396000f3fe6080604052600436106101815760003560e01c80638fafd021116100d1578063b88d4fde1161008a578063c87b56dd11610064578063c87b56dd1461042c578063dec2faa51461044c578063e985e9c51461046e578063f3fe8c2d146104b757600080fd5b8063b88d4fde146103d9578063b9a2de3a146103f9578063be9af5361461041957600080fd5b80638fafd0211461033c57806391e078bb1461035157806395d89b4114610371578063a22cb46514610386578063a2bf932a146103a6578063ae677aa3146103c657600080fd5b806342842e0e1161013e57806370a082311161011857806370a08231146102c957806372b3b620146102e957806385535b25146102fc5780638a410b1a1461030f57600080fd5b806342842e0e14610276578063454a2ab3146102965780636352211e146102a957600080fd5b806301ffc9a71461018657806306fdde03146101bb578063081812fc146101dd578063095ea7b31461021557806312e855851461023757806323b872dd14610256575b600080fd5b34801561019257600080fd5b506101a66101a13660046128c7565b6104d7565b60405190151581526020015b60405180910390f35b3480156101c757600080fd5b506101d0610529565b6040516101b29190612934565b3480156101e957600080fd5b506101fd6101f8366004612947565b6105bb565b6040516001600160a01b0390911681526020016101b2565b34801561022157600080fd5b5061023561023036600461297c565b6105e2565b005b34801561024357600080fd5b50600a545b6040519081526020016101b2565b34801561026257600080fd5b506102356102713660046129a6565b6106fc565b34801561028257600080fd5b506102356102913660046129a6565b61072d565b6102356102a4366004612947565b610748565b3480156102b557600080fd5b506101fd6102c4366004612947565b6109af565b3480156102d557600080fd5b506102486102e43660046129e2565b610a0f565b6102486102f7366004612a89565b610a95565b61023561030a366004612ae2565b610b11565b34801561031b57600080fd5b5061032f61032a3660046129e2565b610c32565b6040516101b29190612b04565b34801561034857600080fd5b5061032f610dfa565b34801561035d57600080fd5b5061023561036c366004612bc9565b611017565b34801561037d57600080fd5b506101d061120f565b34801561039257600080fd5b506102356103a1366004612bf5565b61121e565b3480156103b257600080fd5b5061032f6103c1366004612947565b611229565b6102356103d4366004612947565b61137c565b3480156103e557600080fd5b506102356103f4366004612c31565b611401565b34801561040557600080fd5b50610235610414366004612947565b611439565b610235610427366004612947565b6116d9565b34801561043857600080fd5b506101d0610447366004612947565b61184d565b34801561045857600080fd5b5061046161195d565b6040516101b29190612cad565b34801561047a57600080fd5b506101a6610489366004612d32565b6001600160a01b03918216600090815260056020908152604080832093909416825291909152205460ff1690565b3480156104c357600080fd5b506104616104d2366004612947565b611b86565b60006001600160e01b031982166380ac58cd60e01b148061050857506001600160e01b03198216635b5e139f60e01b145b8061052357506301ffc9a760e01b6001600160e01b03198316145b92915050565b60606000805461053890612d65565b80601f016020809104026020016040519081016040528092919081815260200182805461056490612d65565b80156105b15780601f10610586576101008083540402835291602001916105b1565b820191906000526020600020905b81548152906001019060200180831161059457829003601f168201915b5050505050905090565b60006105c682611cb5565b506000908152600460205260409020546001600160a01b031690565b60006105ed826109af565b9050806001600160a01b0316836001600160a01b03160361065f5760405162461bcd60e51b815260206004820152602160248201527f4552433732313a20617070726f76616c20746f2063757272656e74206f776e656044820152603960f91b60648201526084015b60405180910390fd5b336001600160a01b038216148061067b575061067b8133610489565b6106ed5760405162461bcd60e51b815260206004820152603e60248201527f4552433732313a20617070726f76652063616c6c6572206973206e6f7420746f60448201527f6b656e206f776e6572206e6f7220617070726f76656420666f7220616c6c00006064820152608401610656565b6106f78383611d17565b505050565b6107063382611d85565b6107225760405162461bcd60e51b815260040161065690612d9f565b6106f7838383611e03565b6106f783838360405180602001604052806000815250611401565b60026007540361079a5760405162461bcd60e51b815260206004820152601f60248201527f5265656e7472616e637947756172643a207265656e7472616e742063616c6c006044820152606401610656565b60026007556000818152600d60205260409020600681015460ff166107f95760405162461bcd60e51b815260206004820152601560248201527441756374696f6e206973206e6f742061637469766560581b6044820152606401610656565b806005015442106108405760405162461bcd60e51b8152602060048201526011602482015270105d58dd1a5bdb881a185cc8195b991959607a1b6044820152606401610656565b806002015434116108a35760405162461bcd60e51b815260206004820152602760248201527f426964206d75737420626520686967686572207468616e20746865206d696e696044820152661b5d5b48189a5960ca1b6064820152608401610656565b806003015434116108f65760405162461bcd60e51b815260206004820152601d60248201527f546865726520697320616c7265616479206120686967686572206269640000006044820152606401610656565b60048101546001600160a01b03161561094b57600481015460038201546040516001600160a01b039092169181156108fc0291906000818181858888f19350505050158015610949573d6000803e3d6000fd5b505b34600382018190556004820180546001600160a01b0319163390811790915560408051918252602082019290925283917f558a0d5d5468d74b0db24c74eb348b42271c2ebb4c9e953ced38aaed95fa4361910160405180910390a250506001600755565b6000818152600260205260408120546001600160a01b0316806105235760405162461bcd60e51b8152602060048201526018602482015277115490cdcc8c4e881a5b9d985b1a59081d1bdad95b88125160421b6044820152606401610656565b60006001600160a01b038216610a795760405162461bcd60e51b815260206004820152602960248201527f4552433732313a2061646472657373207a65726f206973206e6f7420612076616044820152683634b21037bbb732b960b91b6064820152608401610656565b506001600160a01b031660009081526003602052604090205490565b6000610aa5600880546001019055565b6000610ab060085490565b9050610abc3382611f9f565b610ac681856120e1565b610ad08184612174565b807fb2c56fa1c8d4635aea10eb6fe9c5f3e23f4c1674621f027e40f978bbfe8def338585604051610b02929190612ded565b60405180910390a29392505050565b6000828152600c60205260409020600201546001600160a01b03163314610b7a5760405162461bcd60e51b815260206004820152601f60248201527f4f6e6c79204e4654204f776e65722063616e2073656c6c20746865204e4654006044820152606401610656565b600a54341015610bf25760405162461bcd60e51b815260206004820152603860248201527f5072696365204d7573742062652067726561746572207468616e206f7220657160448201527f75616c20746f20746865206c697374696e6720707269636500000000000000006064820152608401610656565b6000828152600c6020526040902060068101805462ff00ff191662010000179055600501819055610c236009612446565b610c2e333084611e03565b5050565b60606000610c3f60085490565b905060008060015b838111610c92576000818152600c60205260409020600201546001600160a01b03808816911603610c8057610c7d600184612e25565b92505b80610c8a81612e38565b915050610c47565b5060008267ffffffffffffffff811115610cae57610cae6129fd565b604051908082528060200260200182016040528015610ce757816020015b610cd4612814565b815260200190600190039081610ccc5790505b50905060015b848111610df0576000818152600c60205260409020600201546001600160a01b03808916911603610dde576000818152600c60209081526040918290208251610120810184528154815260018201546001600160a01b0390811693820193909352600282015483169381019390935260038101548216606084015260048101549091166080830152600581015460a0830152600681015460ff808216151560c08501526101008083048216151560e086015262010000909204161515908301528351909190849086908110610dc457610dc4612e51565b6020908102919091010152610dda600185612e25565b9350505b80610de881612e38565b915050610ced565b5095945050505050565b60606000610e0760085490565b90506000610e1460095490565b600854610e219190612e67565b905060008111610e655760405162461bcd60e51b815260206004820152600f60248201526e4e6f20756e736f6c64206974656d7360881b6044820152606401610656565b60008167ffffffffffffffff811115610e8057610e806129fd565b604051908082528060200260200182016040528015610eb957816020015b610ea6612814565b815260200190600190039081610e9e5790505b5090506000805b84811015610fcd57600c6000610ed7836001612e25565b815260208101919091526040016000206006015460ff16610fc557600c6000610f01836001612e25565b815260208082019290925260409081016000208151610120810183528154815260018201546001600160a01b0390811694820194909452600282015484169281019290925260038101548316606083015260048101549092166080820152600582015460a082015260069091015460ff808216151560c08401526101008083048216151560e085015262010000909204161515908201528351849084908110610fac57610fac612e51565b6020908102919091010152610fc2600183612e25565b91505b600101610ec0565b506000811161100f5760405162461bcd60e51b815260206004820152600e60248201526d139bc81a5d195b5cc8199bdd5b9960921b6044820152606401610656565b509392505050565b6000838152600c60205260409020600201546001600160a01b0316331461108c5760405162461bcd60e51b815260206004820152602360248201527f4f6e6c7920746865206f776e65722063616e20737461727420616e206175637460448201526234b7b760e91b6064820152608401610656565b6000838152600d602052604090206006015460ff16156110fa5760405162461bcd60e51b815260206004820152602360248201527f41756374696f6e20616c72656164792061637469766520666f7220746869732060448201526213919560ea1b6064820152608401610656565b6000838152600c60205260408120600601805461ff0019166101001790556111228242612e25565b6040805160e0810182528681523360208083019182528284018881526000606085018181526080860182815260a08701898152600160c089018181528f8652600d8852948a902098518955965196880180546001600160a01b03199081166001600160a01b03998a16179091559451600289015591516003880155516004870180549094169516949094179091559151600584015590516006909201805460ff191692151592909217909155815186815290810185905291925085917f44c53be110c6aa83aa83cd02e351ed172359268272ee1b5d31c0fe48db35c6c7910160405180910390a250505050565b60606001805461053890612d65565b610c2e33838361249d565b6060600061123660085490565b60408051600180825281830190925291925060009190816020015b611259612814565b8152602001906001900390816112515790505090506000805b83811015610fcd5785600c600061128a846001612e25565b8152602001908152602001600020600001540361137457600c60006112b0836001612e25565b815260208082019290925260409081016000208151610120810183528154815260018201546001600160a01b0390811694820194909452600282015484169281019290925260038101548316606083015260048101549092166080820152600582015460a082015260069091015460ff808216151560c08401526101008083048216151560e08501526201000090920416151590820152835184908490811061135b5761135b612e51565b6020908102919091010152611371600183612e25565b91505b600101611272565b600b546001600160a01b031633146113fc5760405162461bcd60e51b815260206004820152603a60248201527f6f6e6c79206f776e6572206f6620746865206d61726b6574706c61636520636160448201527f6e206368616e676520746865206c697374696e672070726963650000000000006064820152608401610656565b600a55565b61140b3383611d85565b6114275760405162461bcd60e51b815260040161065690612d9f565b6114338484848461256b565b50505050565b60026007540361148b5760405162461bcd60e51b815260206004820152601f60248201527f5265656e7472616e637947756172643a207265656e7472616e742063616c6c006044820152606401610656565b60026007556000818152600d60205260409020600681015460ff166114ea5760405162461bcd60e51b815260206004820152601560248201527441756374696f6e206973206e6f742061637469766560581b6044820152606401610656565b806005015442101561153e5760405162461bcd60e51b815260206004820152601860248201527f41756374696f6e206973207374696c6c206f6e676f696e6700000000000000006044820152606401610656565b6006808201805460ff191690556000838152600c6020526040902001805461ff001916905560048101546001600160a01b031615611690576004810180546000848152600c602052604090206002810180546001600160a01b039384166001600160a01b03199182161790915592546001808301805492909416919094161790915560038301546005820155600601805460ff19168217905560098054909101905560048101546115fa9030906001600160a01b031684611e03565b600181015460038201546040516001600160a01b039092169181156108fc0291906000818181858888f1935050505015801561163a573d6000803e3d6000fd5b5060048101546003820154604080516001600160a01b039093168352602083019190915283917fd2aa34a4fdbbc6dff6a3e56f46e0f3ae2a31d7785ff3487aa5c95c642acea501910160405180910390a26116d0565b6001810180546000848152600c6020526040902060020180546001600160a01b0319166001600160a01b0392831617905590546116d09130911684611e03565b50506001600755565b6000818152600c60205260409020600501543481146117605760405162461bcd60e51b815260206004820152603760248201527f506c65617365207375626d6974207468652061736b696e67207072696365207460448201527f6f20636f6d706c657465207468652070757263686173650000000000000000006064820152608401610656565b6000828152600c60205260409020600281018054600180840180546001600160a01b03199081166001600160a01b0385161790915590911633179091556006909101805462ff00ff191690911790556117bd600980546001019055565b6117c8303384611e03565b600b54600a546040516001600160a01b039092169181156108fc0291906000818181858888f19350505050158015611804573d6000803e3d6000fd5b506000828152600c60205260408082206001015490516001600160a01b03909116913480156108fc02929091818181858888f193505050501580156106f7573d6000803e3d6000fd5b606061185882611cb5565b6000828152600660205260408120805461187190612d65565b80601f016020809104026020016040519081016040528092919081815260200182805461189d90612d65565b80156118ea5780601f106118bf576101008083540402835291602001916118ea565b820191906000526020600020905b8154815290600101906020018083116118cd57829003601f168201915b50505050509050600061190860408051602081019091526000815290565b9050805160000361191a575092915050565b81511561194c578082604051602001611934929190612e7a565b60405160208183030381529060405292505050919050565b6119558461259e565b949350505050565b6060600061196a60085490565b90506000805b828110156119b957600d6000611987836001612e25565b815260208101919091526040016000206006015460ff16156119b1576119ae600183612e25565b91505b600101611970565b50600081116119fd5760405162461bcd60e51b815260206004820152601060248201526f4e6f2061756374696f6e206974656d7360801b6044820152606401610656565b60008167ffffffffffffffff811115611a1857611a186129fd565b604051908082528060200260200182016040528015611a5157816020015b611a3e612860565b815260200190600190039081611a365790505b5090506000805b84811015611b4257600d6000611a6f836001612e25565b815260208101919091526040016000206006015460ff1615611b3a57600d6000611a9a836001612e25565b81526020808201929092526040908101600020815160e0810183528154815260018201546001600160a01b03908116948201949094526002820154928101929092526003810154606083015260048101549092166080820152600582015460a082015260069091015460ff16151560c08201528351849084908110611b2157611b21612e51565b6020908102919091010152611b37600183612e25565b91505b600101611a58565b506000811161100f5760405162461bcd60e51b815260206004820152601060248201526f4e6f2061756374696f6e206974656d7360801b6044820152606401610656565b60606000611b9360085490565b60408051600180825281830190925291925060009190816020015b611bb6612860565b815260200190600190039081611bae5790505090506000805b83811015611b425785600d6000611be7846001612e25565b81526020019081526020016000206000015403611cad57600d6000611c0d836001612e25565b81526020808201929092526040908101600020815160e0810183528154815260018201546001600160a01b03908116948201949094526002820154928101929092526003810154606083015260048101549092166080820152600582015460a082015260069091015460ff16151560c08201528351849084908110611c9457611c94612e51565b6020908102919091010152611caa600183612e25565b91505b600101611bcf565b6000818152600260205260409020546001600160a01b0316611d145760405162461bcd60e51b8152602060048201526018602482015277115490cdcc8c4e881a5b9d985b1a59081d1bdad95b88125160421b6044820152606401610656565b50565b600081815260046020526040902080546001600160a01b0319166001600160a01b0384169081179091558190611d4c826109af565b6001600160a01b03167f8c5be1e5ebec7d5bd14f71427d1e84f3dd0314c0f7b2291e5b200ac8c7c3b92560405160405180910390a45050565b600080611d91836109af565b9050806001600160a01b0316846001600160a01b03161480611dd857506001600160a01b0380821660009081526005602090815260408083209388168352929052205460ff165b806119555750836001600160a01b0316611df1846105bb565b6001600160a01b031614949350505050565b826001600160a01b0316611e16826109af565b6001600160a01b031614611e7a5760405162461bcd60e51b815260206004820152602560248201527f4552433732313a207472616e736665722066726f6d20696e636f72726563742060448201526437bbb732b960d91b6064820152608401610656565b6001600160a01b038216611edc5760405162461bcd60e51b8152602060048201526024808201527f4552433732313a207472616e7366657220746f20746865207a65726f206164646044820152637265737360e01b6064820152608401610656565b611ee7600082611d17565b6001600160a01b0383166000908152600360205260408120805460019290611f10908490612e67565b90915550506001600160a01b0382166000908152600360205260408120805460019290611f3e908490612e25565b909155505060008181526002602052604080822080546001600160a01b0319166001600160a01b0386811691821790925591518493918716917fddf252ad1be2c89b69c2b068fc378daa952ba7f163c4a11628f55a4df523b3ef91a4505050565b6001600160a01b038216611ff55760405162461bcd60e51b815260206004820181905260248201527f4552433732313a206d696e7420746f20746865207a65726f20616464726573736044820152606401610656565b6000818152600260205260409020546001600160a01b03161561205a5760405162461bcd60e51b815260206004820152601c60248201527f4552433732313a20746f6b656e20616c7265616479206d696e746564000000006044820152606401610656565b6001600160a01b0382166000908152600360205260408120805460019290612083908490612e25565b909155505060008181526002602052604080822080546001600160a01b0319166001600160a01b03861690811790915590518392907fddf252ad1be2c89b69c2b068fc378daa952ba7f163c4a11628f55a4df523b3ef908290a45050565b6000828152600260205260409020546001600160a01b031661215c5760405162461bcd60e51b815260206004820152602e60248201527f45524337323155524953746f726167653a2055524920736574206f66206e6f6e60448201526d32bc34b9ba32b73a103a37b5b2b760911b6064820152608401610656565b60008281526006602052604090206106f78282612ef9565b600081116121c45760405162461bcd60e51b815260206004820152601c60248201527f5072696365206d7573742062652067726561746572207468616e2030000000006044820152606401610656565b600a5434146122265760405162461bcd60e51b815260206004820152602860248201527f5072696365204d75737420626520657175616c20746f20746865206c697374696044820152676e6720707269636560c01b6064820152608401610656565b604051806101200160405280838152602001306001600160a01b03168152602001336001600160a01b03168152602001336001600160a01b03168152602001306001600160a01b0316815260200182815260200160001515815260200160001515815260200160011515815250600c60008481526020019081526020016000206000820151816000015560208201518160010160006101000a8154816001600160a01b0302191690836001600160a01b0316021790555060408201518160020160006101000a8154816001600160a01b0302191690836001600160a01b0316021790555060608201518160030160006101000a8154816001600160a01b0302191690836001600160a01b0316021790555060808201518160040160006101000a8154816001600160a01b0302191690836001600160a01b0316021790555060a0820151816005015560c08201518160060160006101000a81548160ff02191690831515021790555060e08201518160060160016101000a81548160ff0219169083151502179055506101008201518160060160026101000a81548160ff0219169083151502179055509050506123dd333084611e03565b6040805130808252336020830181905282840152606082015260808101839052600060a0820181905260c0820152600160e0820152905183917f6ddddb5be44fd7652ea5faaa23b59dc2ebb77f30c57c2b2dfa1a2bb87751a07191908190036101000190a25050565b8054806124955760405162461bcd60e51b815260206004820152601b60248201527f436f756e7465723a2064656372656d656e74206f766572666c6f7700000000006044820152606401610656565b600019019055565b816001600160a01b0316836001600160a01b0316036124fe5760405162461bcd60e51b815260206004820152601960248201527f4552433732313a20617070726f766520746f2063616c6c6572000000000000006044820152606401610656565b6001600160a01b03838116600081815260056020908152604080832094871680845294825291829020805460ff191686151590811790915591519182527f17307eab39ab6107e8899845ad3d59bd9653f200f220920489ca2b5937696c31910160405180910390a3505050565b612576848484611e03565b61258284848484612612565b6114335760405162461bcd60e51b815260040161065690612fb9565b60606125a982611cb5565b60006125c060408051602081019091526000815290565b905060008151116125e0576040518060200160405280600081525061260b565b806125ea84612713565b6040516020016125fb929190612e7a565b6040516020818303038152906040525b9392505050565b60006001600160a01b0384163b1561270857604051630a85bd0160e11b81526001600160a01b0385169063150b7a029061265690339089908890889060040161300b565b6020604051808303816000875af1925050508015612691575060408051601f3d908101601f1916820190925261268e91810190613048565b60015b6126ee573d8080156126bf576040519150601f19603f3d011682016040523d82523d6000602084013e6126c4565b606091505b5080516000036126e65760405162461bcd60e51b815260040161065690612fb9565b805181602001fd5b6001600160e01b031916630a85bd0160e11b149050611955565b506001949350505050565b60608160000361273a5750506040805180820190915260018152600360fc1b602082015290565b8160005b8115612764578061274e81612e38565b915061275d9050600a8361307b565b915061273e565b60008167ffffffffffffffff81111561277f5761277f6129fd565b6040519080825280601f01601f1916602001820160405280156127a9576020820181803683370190505b5090505b8415611955576127be600183612e67565b91506127cb600a8661308f565b6127d6906030612e25565b60f81b8183815181106127eb576127eb612e51565b60200101906001600160f81b031916908160001a90535061280d600a8661307b565b94506127ad565b6040805161012081018252600080825260208201819052918101829052606081018290526080810182905260a0810182905260c0810182905260e0810182905261010081019190915290565b6040518060e001604052806000815260200160006001600160a01b03168152602001600081526020016000815260200160006001600160a01b03168152602001600081526020016000151581525090565b6001600160e01b031981168114611d1457600080fd5b6000602082840312156128d957600080fd5b813561260b816128b1565b60005b838110156128ff5781810151838201526020016128e7565b50506000910152565b600081518084526129208160208601602086016128e4565b601f01601f19169290920160200192915050565b60208152600061260b6020830184612908565b60006020828403121561295957600080fd5b5035919050565b80356001600160a01b038116811461297757600080fd5b919050565b6000806040838503121561298f57600080fd5b61299883612960565b946020939093013593505050565b6000806000606084860312156129bb57600080fd5b6129c484612960565b92506129d260208501612960565b9150604084013590509250925092565b6000602082840312156129f457600080fd5b61260b82612960565b634e487b7160e01b600052604160045260246000fd5b600067ffffffffffffffff80841115612a2e57612a2e6129fd565b604051601f8501601f19908116603f01168101908282118183101715612a5657612a566129fd565b81604052809350858152868686011115612a6f57600080fd5b858560208301376000602087830101525050509392505050565b60008060408385031215612a9c57600080fd5b823567ffffffffffffffff811115612ab357600080fd5b8301601f81018513612ac457600080fd5b612ad385823560208401612a13565b95602094909401359450505050565b60008060408385031215612af557600080fd5b50508035926020909101359150565b602080825282518282018190526000919060409081850190868401855b82811015612bbc57815180518552868101516001600160a01b0390811688870152868201511686860152606080820151612b65828801826001600160a01b03169052565b50506080818101516001600160a01b03169086015260a0808201519086015260c08082015115159086015260e080820151151590860152610100908101511515908501526101209093019290850190600101612b21565b5091979650505050505050565b600080600060608486031215612bde57600080fd5b505081359360208301359350604090920135919050565b60008060408385031215612c0857600080fd5b612c1183612960565b915060208301358015158114612c2657600080fd5b809150509250929050565b60008060008060808587031215612c4757600080fd5b612c5085612960565b9350612c5e60208601612960565b925060408501359150606085013567ffffffffffffffff811115612c8157600080fd5b8501601f81018713612c9257600080fd5b612ca187823560208401612a13565b91505092959194509250565b602080825282518282018190526000919060409081850190868401855b82811015612bbc57815180518552868101516001600160a01b03908116888701528682015187870152606080830151908701526080808301519091169086015260a0808201519086015260c09081015115159085015260e09093019290850190600101612cca565b60008060408385031215612d4557600080fd5b612d4e83612960565b9150612d5c60208401612960565b90509250929050565b600181811c90821680612d7957607f821691505b602082108103612d9957634e487b7160e01b600052602260045260246000fd5b50919050565b6020808252602e908201527f4552433732313a2063616c6c6572206973206e6f7420746f6b656e206f776e6560408201526d1c881b9bdc88185c1c1c9bdd995960921b606082015260800190565b604081526000612e006040830185612908565b90508260208301529392505050565b634e487b7160e01b600052601160045260246000fd5b8082018082111561052357610523612e0f565b600060018201612e4a57612e4a612e0f565b5060010190565b634e487b7160e01b600052603260045260246000fd5b8181038181111561052357610523612e0f565b60008351612e8c8184602088016128e4565b835190830190612ea08183602088016128e4565b01949350505050565b601f8211156106f7576000816000526020600020601f850160051c81016020861015612ed25750805b601f850160051c820191505b81811015612ef157828155600101612ede565b505050505050565b815167ffffffffffffffff811115612f1357612f136129fd565b612f2781612f218454612d65565b84612ea9565b602080601f831160018114612f5c5760008415612f445750858301515b600019600386901b1c1916600185901b178555612ef1565b600085815260208120601f198616915b82811015612f8b57888601518255948401946001909101908401612f6c565b5085821015612fa95787850151600019600388901b60f8161c191681555b5050505050600190811b01905550565b60208082526032908201527f4552433732313a207472616e7366657220746f206e6f6e20455243373231526560408201527131b2b4bb32b91034b6b83632b6b2b73a32b960711b606082015260800190565b6001600160a01b038581168252841660208201526040810183905260806060820181905260009061303e90830184612908565b9695505050505050565b60006020828403121561305a57600080fd5b815161260b816128b1565b634e487b7160e01b600052601260045260246000fd5b60008261308a5761308a613065565b500490565b60008261309e5761309e613065565b50069056fea2646970667358221220c458676a7121e394f66b64faf4769b6cad0c1401cfd503ed6756d763a8b18d2264736f6c63430008180033",
  "linkReferences": {},
  "deployedLinkReferences": {}
}