{
  "_format": "hh-sol-artifact-1",
  "contractName": "NFTBazzar",
  "sourceName": "contracts/NFTBazzar.sol",
  "abi": [
    {
      "inputs": [],
      "stateMutability": "nonpayable",
      "type": "constructor"
    },
    {
      "anonymous": false,
      "inputs": [
        {
          "indexed": true,
          "internalType": "address",
          "name": "owner",
          "type": "address"
        },
        {
          "indexed": true,
          "internalType": "address",
          "name": "approved",
          "type": "address"
        },
        {
          "indexed": true,
          "internalType": "uint256",
          "name": "tokenId",
          "type": "uint256"
        }
      ],
      "name": "Approval",
      "type": "event"
    },
    {
      "anonymous": false,
      "inputs": [
        {
          "indexed": true,
          "internalType": "address",
          "name": "owner",
          "type": "address"
        },
        {
          "indexed": true,
          "internalType": "address",
          "name": "operator",
          "type": "address"
        },
        {
          "indexed": false,
          "internalType": "bool",
          "name": "approved",
          "type": "bool"
        }
      ],
      "name": "ApprovalForAll",
      "type": "event"
    },
    {
      "anonymous": false,
      "inputs": [
        {
          "indexed": true,
          "internalType": "uint256",
          "name": "tokenId",
          "type": "uint256"
        },
        {
          "indexed": false,
          "internalType": "string",
          "name": "tokenURI",
          "type": "string"
        },
        {
          "indexed": false,
          "internalType": "uint256",
          "name": "price",
          "type": "uint256"
        }
      ],
      "name": "TokenCreated",
      "type": "event"
    },
    {
      "anonymous": false,
      "inputs": [
        {
          "indexed": true,
          "internalType": "address",
          "name": "from",
          "type": "address"
        },
        {
          "indexed": true,
          "internalType": "address",
          "name": "to",
          "type": "address"
        },
        {
          "indexed": true,
          "internalType": "uint256",
          "name": "tokenId",
          "type": "uint256"
        }
      ],
      "name": "Transfer",
      "type": "event"
    },
    {
      "anonymous": false,
      "inputs": [
        {
          "indexed": true,
          "internalType": "uint256",
          "name": "tokenId",
          "type": "uint256"
        },
        {
          "indexed": false,
          "internalType": "address",
          "name": "seller",
          "type": "address"
        },
        {
          "indexed": false,
          "internalType": "address",
          "name": "owner",
          "type": "address"
        },
        {
          "indexed": false,
          "internalType": "uint256",
          "name": "price",
          "type": "uint256"
        },
        {
          "indexed": false,
          "internalType": "bool",
          "name": "sold",
          "type": "bool"
        }
      ],
      "name": "idMarketItemCreated",
      "type": "event"
    },
    {
      "inputs": [
        {
          "internalType": "address",
          "name": "to",
          "type": "address"
        },
        {
          "internalType": "uint256",
          "name": "tokenId",
          "type": "uint256"
        }
      ],
      "name": "approve",
      "outputs": [],
      "stateMutability": "nonpayable",
      "type": "function"
    },
    {
      "inputs": [
        {
          "internalType": "address",
          "name": "owner",
          "type": "address"
        }
      ],
      "name": "balanceOf",
      "outputs": [
        {
          "internalType": "uint256",
          "name": "",
          "type": "uint256"
        }
      ],
      "stateMutability": "view",
      "type": "function"
    },
    {
      "inputs": [
        {
          "internalType": "uint256",
          "name": "tokenId",
          "type": "uint256"
        }
      ],
      "name": "createMarketSale",
      "outputs": [],
      "stateMutability": "payable",
      "type": "function"
    },
    {
      "inputs": [
        {
          "internalType": "string",
          "name": "tokenURI",
          "type": "string"
        },
        {
          "internalType": "uint256",
          "name": "price",
          "type": "uint256"
        }
      ],
      "name": "createToken",
      "outputs": [
        {
          "internalType": "uint256",
          "name": "",
          "type": "uint256"
        }
      ],
      "stateMutability": "payable",
      "type": "function"
    },
    {
      "inputs": [],
      "name": "fetchItemsListed",
      "outputs": [
        {
          "components": [
            {
              "internalType": "uint256",
              "name": "_tokenId",
              "type": "uint256"
            },
            {
              "internalType": "address payable",
              "name": "seller",
              "type": "address"
            },
            {
              "internalType": "address payable",
              "name": "owner",
              "type": "address"
            },
            {
              "internalType": "uint256",
              "name": "price",
              "type": "uint256"
            },
            {
              "internalType": "bool",
              "name": "sold",
              "type": "bool"
            }
          ],
          "internalType": "struct NFTBazzar.MarketItem[]",
          "name": "",
          "type": "tuple[]"
        }
      ],
      "stateMutability": "view",
      "type": "function"
    },
    {
      "inputs": [],
      "name": "fetchMarketItem",
      "outputs": [
        {
          "components": [
            {
              "internalType": "uint256",
              "name": "_tokenId",
              "type": "uint256"
            },
            {
              "internalType": "address payable",
              "name": "seller",
              "type": "address"
            },
            {
              "internalType": "address payable",
              "name": "owner",
              "type": "address"
            },
            {
              "internalType": "uint256",
              "name": "price",
              "type": "uint256"
            },
            {
              "internalType": "bool",
              "name": "sold",
              "type": "bool"
            }
          ],
          "internalType": "struct NFTBazzar.MarketItem[]",
          "name": "",
          "type": "tuple[]"
        }
      ],
      "stateMutability": "view",
      "type": "function"
    },
    {
      "inputs": [],
      "name": "fetchMyNFT",
      "outputs": [
        {
          "components": [
            {
              "internalType": "uint256",
              "name": "_tokenId",
              "type": "uint256"
            },
            {
              "internalType": "address payable",
              "name": "seller",
              "type": "address"
            },
            {
              "internalType": "address payable",
              "name": "owner",
              "type": "address"
            },
            {
              "internalType": "uint256",
              "name": "price",
              "type": "uint256"
            },
            {
              "internalType": "bool",
              "name": "sold",
              "type": "bool"
            }
          ],
          "internalType": "struct NFTBazzar.MarketItem[]",
          "name": "",
          "type": "tuple[]"
        }
      ],
      "stateMutability": "view",
      "type": "function"
    },
    {
      "inputs": [
        {
          "internalType": "uint256",
          "name": "tokenId",
          "type": "uint256"
        }
      ],
      "name": "getApproved",
      "outputs": [
        {
          "internalType": "address",
          "name": "",
          "type": "address"
        }
      ],
      "stateMutability": "view",
      "type": "function"
    },
    {
      "inputs": [],
      "name": "getListingPrice",
      "outputs": [
        {
          "internalType": "uint256",
          "name": "",
          "type": "uint256"
        }
      ],
      "stateMutability": "view",
      "type": "function"
    },
    {
      "inputs": [
        {
          "internalType": "address",
          "name": "owner",
          "type": "address"
        },
        {
          "internalType": "address",
          "name": "operator",
          "type": "address"
        }
      ],
      "name": "isApprovedForAll",
      "outputs": [
        {
          "internalType": "bool",
          "name": "",
          "type": "bool"
        }
      ],
      "stateMutability": "view",
      "type": "function"
    },
    {
      "inputs": [],
      "name": "name",
      "outputs": [
        {
          "internalType": "string",
          "name": "",
          "type": "string"
        }
      ],
      "stateMutability": "view",
      "type": "function"
    },
    {
      "inputs": [
        {
          "internalType": "uint256",
          "name": "tokenId",
          "type": "uint256"
        }
      ],
      "name": "ownerOf",
      "outputs": [
        {
          "internalType": "address",
          "name": "",
          "type": "address"
        }
      ],
      "stateMutability": "view",
      "type": "function"
    },
    {
      "inputs": [
        {
          "internalType": "uint256",
          "name": "tokenId",
          "type": "uint256"
        },
        {
          "internalType": "uint256",
          "name": "price",
          "type": "uint256"
        }
      ],
      "name": "reSellToken",
      "outputs": [],
      "stateMutability": "payable",
      "type": "function"
    },
    {
      "inputs": [
        {
          "internalType": "address",
          "name": "from",
          "type": "address"
        },
        {
          "internalType": "address",
          "name": "to",
          "type": "address"
        },
        {
          "internalType": "uint256",
          "name": "tokenId",
          "type": "uint256"
        }
      ],
      "name": "safeTransferFrom",
      "outputs": [],
      "stateMutability": "nonpayable",
      "type": "function"
    },
    {
      "inputs": [
        {
          "internalType": "address",
          "name": "from",
          "type": "address"
        },
        {
          "internalType": "address",
          "name": "to",
          "type": "address"
        },
        {
          "internalType": "uint256",
          "name": "tokenId",
          "type": "uint256"
        },
        {
          "internalType": "bytes",
          "name": "data",
          "type": "bytes"
        }
      ],
      "name": "safeTransferFrom",
      "outputs": [],
      "stateMutability": "nonpayable",
      "type": "function"
    },
    {
      "inputs": [
        {
          "internalType": "address",
          "name": "operator",
          "type": "address"
        },
        {
          "internalType": "bool",
          "name": "approved",
          "type": "bool"
        }
      ],
      "name": "setApprovalForAll",
      "outputs": [],
      "stateMutability": "nonpayable",
      "type": "function"
    },
    {
      "inputs": [
        {
          "internalType": "bytes4",
          "name": "interfaceId",
          "type": "bytes4"
        }
      ],
      "name": "supportsInterface",
      "outputs": [
        {
          "internalType": "bool",
          "name": "",
          "type": "bool"
        }
      ],
      "stateMutability": "view",
      "type": "function"
    },
    {
      "inputs": [],
      "name": "symbol",
      "outputs": [
        {
          "internalType": "string",
          "name": "",
          "type": "string"
        }
      ],
      "stateMutability": "view",
      "type": "function"
    },
    {
      "inputs": [
        {
          "internalType": "uint256",
          "name": "tokenId",
          "type": "uint256"
        }
      ],
      "name": "tokenURI",
      "outputs": [
        {
          "internalType": "string",
          "name": "",
          "type": "string"
        }
      ],
      "stateMutability": "view",
      "type": "function"
    },
    {
      "inputs": [
        {
          "internalType": "address",
          "name": "from",
          "type": "address"
        },
        {
          "internalType": "address",
          "name": "to",
          "type": "address"
        },
        {
          "internalType": "uint256",
          "name": "tokenId",
          "type": "uint256"
        }
      ],
      "name": "transferFrom",
      "outputs": [],
      "stateMutability": "nonpayable",
      "type": "function"
    },
    {
      "inputs": [
        {
          "internalType": "uint256",
          "name": "_listingPrice",
          "type": "uint256"
        }
      ],
      "name": "updateListingPrice",
      "outputs": [],
      "stateMutability": "payable",
      "type": "function"
    }
  ],
  "bytecode": "0x60806040526608e1bc9bf040006009553480156200001c57600080fd5b506040518060400160405280600981526020016827232a2130bd3d30b960b91b81525060405180604001604052806005815260200164135653919560da1b81525081600090816200006e91906200013f565b5060016200007d82826200013f565b5050600a80546001600160a01b03191633179055506200020b565b634e487b7160e01b600052604160045260246000fd5b600181811c90821680620000c357607f821691505b602082108103620000e457634e487b7160e01b600052602260045260246000fd5b50919050565b601f8211156200013a576000816000526020600020601f850160051c81016020861015620001155750805b601f850160051c820191505b81811015620001365782815560010162000121565b5050505b505050565b81516001600160401b038111156200015b576200015b62000098565b62000173816200016c8454620000ae565b84620000ea565b602080601f831160018114620001ab5760008415620001925750858301515b600019600386901b1c1916600185901b17855562000136565b600085815260208120601f198616915b82811015620001dc57888601518255948401946001909101908401620001bb565b5085821015620001fb5787850151600019600388901b60f8161c191681555b5050505050600190811b01905550565b61230a806200021b6000396000f3fe60806040526004361061012a5760003560e01c806372b3b620116100ab578063ae677aa31161006f578063ae677aa314610311578063b88d4fde14610324578063be9af53614610344578063c18763f714610357578063c87b56dd1461036c578063e985e9c51461038c57600080fd5b806372b3b620146102a157806385535b25146102b45780638fafd021146102c757806395d89b41146102dc578063a22cb465146102f157600080fd5b806323b872dd116100f257806323b872dd146101ff57806342842e0e1461021f57806345f8fa801461023f5780636352211e1461026157806370a082311461028157600080fd5b806301ffc9a71461012f57806306fdde0314610164578063081812fc14610186578063095ea7b3146101be57806312e85585146101e0575b600080fd5b34801561013b57600080fd5b5061014f61014a366004611bf2565b6103d5565b60405190151581526020015b60405180910390f35b34801561017057600080fd5b50610179610427565b60405161015b9190611c5f565b34801561019257600080fd5b506101a66101a1366004611c72565b6104b9565b6040516001600160a01b03909116815260200161015b565b3480156101ca57600080fd5b506101de6101d9366004611ca7565b6104e0565b005b3480156101ec57600080fd5b506009545b60405190815260200161015b565b34801561020b57600080fd5b506101de61021a366004611cd1565b6105fa565b34801561022b57600080fd5b506101de61023a366004611cd1565b61062b565b34801561024b57600080fd5b50610254610646565b60405161015b9190611d0d565b34801561026d57600080fd5b506101a661027c366004611c72565b61080f565b34801561028d57600080fd5b506101f161029c366004611d89565b61086f565b6101f16102af366004611e30565b6108f5565b6101de6102c2366004611e89565b610971565b3480156102d357600080fd5b50610254610ab1565b3480156102e857600080fd5b50610179610cbc565b3480156102fd57600080fd5b506101de61030c366004611eab565b610ccb565b6101de61031f366004611c72565b610cd6565b34801561033057600080fd5b506101de61033f366004611ee7565b610d5b565b6101de610352366004611c72565b610d93565b34801561036357600080fd5b50610254610ee8565b34801561037857600080fd5b50610179610387366004611c72565b6110a8565b34801561039857600080fd5b5061014f6103a7366004611f63565b6001600160a01b03918216600090815260056020908152604080832093909416825291909152205460ff1690565b60006001600160e01b031982166380ac58cd60e01b148061040657506001600160e01b03198216635b5e139f60e01b145b8061042157506301ffc9a760e01b6001600160e01b03198316145b92915050565b60606000805461043690611f96565b80601f016020809104026020016040519081016040528092919081815260200182805461046290611f96565b80156104af5780601f10610484576101008083540402835291602001916104af565b820191906000526020600020905b81548152906001019060200180831161049257829003601f168201915b5050505050905090565b60006104c4826111b8565b506000908152600460205260409020546001600160a01b031690565b60006104eb8261080f565b9050806001600160a01b0316836001600160a01b03160361055d5760405162461bcd60e51b815260206004820152602160248201527f4552433732313a20617070726f76616c20746f2063757272656e74206f776e656044820152603960f91b60648201526084015b60405180910390fd5b336001600160a01b0382161480610579575061057981336103a7565b6105eb5760405162461bcd60e51b815260206004820152603e60248201527f4552433732313a20617070726f76652063616c6c6572206973206e6f7420746f60448201527f6b656e206f776e6572206e6f7220617070726f76656420666f7220616c6c00006064820152608401610554565b6105f5838361121a565b505050565b6106043382611288565b6106205760405162461bcd60e51b815260040161055490611fd0565b6105f5838383611306565b6105f583838360405180602001604052806000815250610d5b565b6060600061065360075490565b905060008060005b838110156106ab5733600b6000610673846001612034565b81526020810191909152604001600020600101546001600160a01b0316036106a3576106a0600184612034565b92505b60010161065b565b5060008267ffffffffffffffff8111156106c7576106c7611da4565b60405190808252806020026020018201604052801561072057816020015b6040805160a0810182526000808252602080830182905292820181905260608201819052608082015282526000199092019101816106e55790505b50905060005b848110156108065733600b600061073e846001612034565b81526020810191909152604001600020600101546001600160a01b0316036107fe57600061076d826001612034565b6000818152600b6020908152604091829020825160a0810184528154815260018201546001600160a01b039081169382019390935260028201549092169282019290925260038201546060820152600482015460ff1615156080820152855192935090918590879081106107e3576107e3612047565b60209081029190910101526107f9600186612034565b945050505b600101610726565b50949350505050565b6000818152600260205260408120546001600160a01b0316806104215760405162461bcd60e51b8152602060048201526018602482015277115490cdcc8c4e881a5b9d985b1a59081d1bdad95b88125160421b6044820152606401610554565b60006001600160a01b0382166108d95760405162461bcd60e51b815260206004820152602960248201527f4552433732313a2061646472657373207a65726f206973206e6f7420612076616044820152683634b21037bbb732b960b91b6064820152608401610554565b506001600160a01b031660009081526003602052604090205490565b6000610905600780546001019055565b600061091060075490565b905061091c33826114a2565b61092681856115e4565b6109308184611677565b807fb2c56fa1c8d4635aea10eb6fe9c5f3e23f4c1674621f027e40f978bbfe8def33858560405161096292919061205d565b60405180910390a29392505050565b6000828152600b60205260409020600201546001600160a01b031633146109da5760405162461bcd60e51b815260206004820152601f60248201527f4f6e6c79204e4654204f776e65722063616e2073656c6c20746865204e4654006044820152606401610554565b600954341015610a525760405162461bcd60e51b815260206004820152603860248201527f5072696365204d7573742062652067726561746572207468616e206f7220657160448201527f75616c20746f20746865206c697374696e6720707269636500000000000000006064820152608401610554565b6000828152600b6020526040902060048101805460ff19169055600381018290556001810180546001600160a01b031990811633179091556002909101805490911630179055610aa2600861180e565b610aad333084611306565b5050565b60606000610abe60075490565b90506000610acb60085490565b600754610ad8919061207f565b905060008111610b1c5760405162461bcd60e51b815260206004820152600f60248201526e4e6f20756e736f6c64206974656d7360881b6044820152606401610554565b60008167ffffffffffffffff811115610b3757610b37611da4565b604051908082528060200260200182016040528015610b9057816020015b6040805160a081018252600080825260208083018290529282018190526060820181905260808201528252600019909201910181610b555790505b5090506000805b84811015610c725730600b6000610baf846001612034565b81526020810191909152604001600020600201546001600160a01b031603610c6a57600b6000610be0836001612034565b81526020808201929092526040908101600020815160a0810183528154815260018201546001600160a01b0390811694820194909452600282015490931691830191909152600381015460608301526004015460ff16151560808201528351849084908110610c5157610c51612047565b6020908102919091010152610c67600183612034565b91505b600101610b97565b5060008111610cb45760405162461bcd60e51b815260206004820152600e60248201526d139bc81a5d195b5cc8199bdd5b9960921b6044820152606401610554565b509392505050565b60606001805461043690611f96565b610aad338383611865565b600a546001600160a01b03163314610d565760405162461bcd60e51b815260206004820152603a60248201527f6f6e6c79206f776e6572206f6620746865206d61726b6574706c61636520636160448201527f6e206368616e676520746865206c697374696e672070726963650000000000006064820152608401610554565b600955565b610d653383611288565b610d815760405162461bcd60e51b815260040161055490611fd0565b610d8d84848484611933565b50505050565b6000818152600b6020526040902060030154348114610e1a5760405162461bcd60e51b815260206004820152603760248201527f506c65617365207375626d6974207468652061736b696e67207072696365207460448201527f6f20636f6d706c657465207468652070757263686173650000000000000000006064820152608401610554565b6000828152600b602052604090206002810180546001600160a01b03191633179055600401805460ff19166001179055610e58600880546001019055565b610e63303384611306565b600a546009546040516001600160a01b039092169181156108fc0291906000818181858888f19350505050158015610e9f573d6000803e3d6000fd5b506000828152600b60205260408082206001015490516001600160a01b03909116913480156108fc02929091818181858888f193505050501580156105f5573d6000803e3d6000fd5b60606000610ef560075490565b905060008060005b83811015610f4d5733600b6000610f15846001612034565b81526020810191909152604001600020600201546001600160a01b031603610f4557610f42600184612034565b92505b600101610efd565b5060008267ffffffffffffffff811115610f6957610f69611da4565b604051908082528060200260200182016040528015610fc257816020015b6040805160a081018252600080825260208083018290529282018190526060820181905260808201528252600019909201910181610f875790505b50905060005b848110156108065733600b6000610fe0846001612034565b81526020810191909152604001600020600201546001600160a01b0316036110a057600061100f826001612034565b6000818152600b6020908152604091829020825160a0810184528154815260018201546001600160a01b039081169382019390935260028201549092169282019290925260038201546060820152600482015460ff16151560808201528551929350909185908790811061108557611085612047565b602090810291909101015261109b600186612034565b945050505b600101610fc8565b60606110b3826111b8565b600082815260066020526040812080546110cc90611f96565b80601f01602080910402602001604051908101604052809291908181526020018280546110f890611f96565b80156111455780601f1061111a57610100808354040283529160200191611145565b820191906000526020600020905b81548152906001019060200180831161112857829003601f168201915b50505050509050600061116360408051602081019091526000815290565b90508051600003611175575092915050565b8151156111a757808260405160200161118f929190612092565b60405160208183030381529060405292505050919050565b6111b084611966565b949350505050565b6000818152600260205260409020546001600160a01b03166112175760405162461bcd60e51b8152602060048201526018602482015277115490cdcc8c4e881a5b9d985b1a59081d1bdad95b88125160421b6044820152606401610554565b50565b600081815260046020526040902080546001600160a01b0319166001600160a01b038416908117909155819061124f8261080f565b6001600160a01b03167f8c5be1e5ebec7d5bd14f71427d1e84f3dd0314c0f7b2291e5b200ac8c7c3b92560405160405180910390a45050565b6000806112948361080f565b9050806001600160a01b0316846001600160a01b031614806112db57506001600160a01b0380821660009081526005602090815260408083209388168352929052205460ff165b806111b05750836001600160a01b03166112f4846104b9565b6001600160a01b031614949350505050565b826001600160a01b03166113198261080f565b6001600160a01b03161461137d5760405162461bcd60e51b815260206004820152602560248201527f4552433732313a207472616e736665722066726f6d20696e636f72726563742060448201526437bbb732b960d91b6064820152608401610554565b6001600160a01b0382166113df5760405162461bcd60e51b8152602060048201526024808201527f4552433732313a207472616e7366657220746f20746865207a65726f206164646044820152637265737360e01b6064820152608401610554565b6113ea60008261121a565b6001600160a01b038316600090815260036020526040812080546001929061141390849061207f565b90915550506001600160a01b0382166000908152600360205260408120805460019290611441908490612034565b909155505060008181526002602052604080822080546001600160a01b0319166001600160a01b0386811691821790925591518493918716917fddf252ad1be2c89b69c2b068fc378daa952ba7f163c4a11628f55a4df523b3ef91a4505050565b6001600160a01b0382166114f85760405162461bcd60e51b815260206004820181905260248201527f4552433732313a206d696e7420746f20746865207a65726f20616464726573736044820152606401610554565b6000818152600260205260409020546001600160a01b03161561155d5760405162461bcd60e51b815260206004820152601c60248201527f4552433732313a20746f6b656e20616c7265616479206d696e746564000000006044820152606401610554565b6001600160a01b0382166000908152600360205260408120805460019290611586908490612034565b909155505060008181526002602052604080822080546001600160a01b0319166001600160a01b03861690811790915590518392907fddf252ad1be2c89b69c2b068fc378daa952ba7f163c4a11628f55a4df523b3ef908290a45050565b6000828152600260205260409020546001600160a01b031661165f5760405162461bcd60e51b815260206004820152602e60248201527f45524337323155524953746f726167653a2055524920736574206f66206e6f6e60448201526d32bc34b9ba32b73a103a37b5b2b760911b6064820152608401610554565b60008281526006602052604090206105f58282612111565b600081116116c75760405162461bcd60e51b815260206004820152601c60248201527f5072696365206d7573742062652067726561746572207468616e2030000000006044820152606401610554565b60095434146117295760405162461bcd60e51b815260206004820152602860248201527f5072696365204d75737420626520657175616c20746f20746865206c697374696044820152676e6720707269636560c01b6064820152608401610554565b6040805160a08101825283815233602080830182815230848601818152606086018881526000608088018181528b8252600b909652979097209551865591516001860180546001600160a01b03199081166001600160a01b0393841617909155925160028701805490941691161790915593516003840155516004909201805460ff1916921515929092179091556117c19184611306565b604080513381523060208201529081018290526000606082015282907fdebdb32cb5230ab727c9c361b16fdb2015df225c10e6a3e7f60ecd5dc5be45169060800160405180910390a25050565b80548061185d5760405162461bcd60e51b815260206004820152601b60248201527f436f756e7465723a2064656372656d656e74206f766572666c6f7700000000006044820152606401610554565b600019019055565b816001600160a01b0316836001600160a01b0316036118c65760405162461bcd60e51b815260206004820152601960248201527f4552433732313a20617070726f766520746f2063616c6c6572000000000000006044820152606401610554565b6001600160a01b03838116600081815260056020908152604080832094871680845294825291829020805460ff191686151590811790915591519182527f17307eab39ab6107e8899845ad3d59bd9653f200f220920489ca2b5937696c31910160405180910390a3505050565b61193e848484611306565b61194a848484846119da565b610d8d5760405162461bcd60e51b8152600401610554906121d1565b6060611971826111b8565b600061198860408051602081019091526000815290565b905060008151116119a857604051806020016040528060008152506119d3565b806119b284611adb565b6040516020016119c3929190612092565b6040516020818303038152906040525b9392505050565b60006001600160a01b0384163b15611ad057604051630a85bd0160e11b81526001600160a01b0385169063150b7a0290611a1e903390899088908890600401612223565b6020604051808303816000875af1925050508015611a59575060408051601f3d908101601f19168201909252611a5691810190612260565b60015b611ab6573d808015611a87576040519150601f19603f3d011682016040523d82523d6000602084013e611a8c565b606091505b508051600003611aae5760405162461bcd60e51b8152600401610554906121d1565b805181602001fd5b6001600160e01b031916630a85bd0160e11b1490506111b0565b506001949350505050565b606081600003611b025750506040805180820190915260018152600360fc1b602082015290565b8160005b8115611b2c5780611b168161227d565b9150611b259050600a836122ac565b9150611b06565b60008167ffffffffffffffff811115611b4757611b47611da4565b6040519080825280601f01601f191660200182016040528015611b71576020820181803683370190505b5090505b84156111b057611b8660018361207f565b9150611b93600a866122c0565b611b9e906030612034565b60f81b818381518110611bb357611bb3612047565b60200101906001600160f81b031916908160001a905350611bd5600a866122ac565b9450611b75565b6001600160e01b03198116811461121757600080fd5b600060208284031215611c0457600080fd5b81356119d381611bdc565b60005b83811015611c2a578181015183820152602001611c12565b50506000910152565b60008151808452611c4b816020860160208601611c0f565b601f01601f19169290920160200192915050565b6020815260006119d36020830184611c33565b600060208284031215611c8457600080fd5b5035919050565b80356001600160a01b0381168114611ca257600080fd5b919050565b60008060408385031215611cba57600080fd5b611cc383611c8b565b946020939093013593505050565b600080600060608486031215611ce657600080fd5b611cef84611c8b565b9250611cfd60208501611c8b565b9150604084013590509250925092565b602080825282518282018190526000919060409081850190868401855b82811015611d7c57815180518552868101516001600160a01b03908116888701528682015116868601526060808201519086015260809081015115159085015260a09093019290850190600101611d2a565b5091979650505050505050565b600060208284031215611d9b57600080fd5b6119d382611c8b565b634e487b7160e01b600052604160045260246000fd5b600067ffffffffffffffff80841115611dd557611dd5611da4565b604051601f8501601f19908116603f01168101908282118183101715611dfd57611dfd611da4565b81604052809350858152868686011115611e1657600080fd5b858560208301376000602087830101525050509392505050565b60008060408385031215611e4357600080fd5b823567ffffffffffffffff811115611e5a57600080fd5b8301601f81018513611e6b57600080fd5b611e7a85823560208401611dba565b95602094909401359450505050565b60008060408385031215611e9c57600080fd5b50508035926020909101359150565b60008060408385031215611ebe57600080fd5b611ec783611c8b565b915060208301358015158114611edc57600080fd5b809150509250929050565b60008060008060808587031215611efd57600080fd5b611f0685611c8b565b9350611f1460208601611c8b565b925060408501359150606085013567ffffffffffffffff811115611f3757600080fd5b8501601f81018713611f4857600080fd5b611f5787823560208401611dba565b91505092959194509250565b60008060408385031215611f7657600080fd5b611f7f83611c8b565b9150611f8d60208401611c8b565b90509250929050565b600181811c90821680611faa57607f821691505b602082108103611fca57634e487b7160e01b600052602260045260246000fd5b50919050565b6020808252602e908201527f4552433732313a2063616c6c6572206973206e6f7420746f6b656e206f776e6560408201526d1c881b9bdc88185c1c1c9bdd995960921b606082015260800190565b634e487b7160e01b600052601160045260246000fd5b808201808211156104215761042161201e565b634e487b7160e01b600052603260045260246000fd5b6040815260006120706040830185611c33565b90508260208301529392505050565b818103818111156104215761042161201e565b600083516120a4818460208801611c0f565b8351908301906120b8818360208801611c0f565b01949350505050565b601f8211156105f5576000816000526020600020601f850160051c810160208610156120ea5750805b601f850160051c820191505b81811015612109578281556001016120f6565b505050505050565b815167ffffffffffffffff81111561212b5761212b611da4565b61213f816121398454611f96565b846120c1565b602080601f831160018114612174576000841561215c5750858301515b600019600386901b1c1916600185901b178555612109565b600085815260208120601f198616915b828110156121a357888601518255948401946001909101908401612184565b50858210156121c15787850151600019600388901b60f8161c191681555b5050505050600190811b01905550565b60208082526032908201527f4552433732313a207472616e7366657220746f206e6f6e20455243373231526560408201527131b2b4bb32b91034b6b83632b6b2b73a32b960711b606082015260800190565b6001600160a01b038581168252841660208201526040810183905260806060820181905260009061225690830184611c33565b9695505050505050565b60006020828403121561227257600080fd5b81516119d381611bdc565b60006001820161228f5761228f61201e565b5060010190565b634e487b7160e01b600052601260045260246000fd5b6000826122bb576122bb612296565b500490565b6000826122cf576122cf612296565b50069056fea26469706673582212205e294ed3ca2f7f7f96de2fc89931d2e21923540a70187b6a97334be5245e4e1564736f6c63430008180033",
  "linkReferences": {},
  "deployedLinkReferences": {}
}